{
  "contractName": "AtlanticId",
  "abi": [
    {
      "inputs": [],
      "stateMutability": "nonpayable",
      "type": "constructor"
    },
    {
      "anonymous": false,
      "inputs": [
        {
          "indexed": true,
          "internalType": "address",
          "name": "owner",
          "type": "address"
        },
        {
          "indexed": true,
          "internalType": "address",
          "name": "approved",
          "type": "address"
        },
        {
          "indexed": true,
          "internalType": "uint256",
          "name": "tokenId",
          "type": "uint256"
        }
      ],
      "name": "Approval",
      "type": "event"
    },
    {
      "anonymous": false,
      "inputs": [
        {
          "indexed": true,
          "internalType": "address",
          "name": "owner",
          "type": "address"
        },
        {
          "indexed": true,
          "internalType": "address",
          "name": "operator",
          "type": "address"
        },
        {
          "indexed": false,
          "internalType": "bool",
          "name": "approved",
          "type": "bool"
        }
      ],
      "name": "ApprovalForAll",
      "type": "event"
    },
    {
      "anonymous": false,
      "inputs": [
        {
          "indexed": false,
          "internalType": "uint256",
          "name": "tokenId",
          "type": "uint256"
        },
        {
          "indexed": false,
          "internalType": "uint256",
          "name": "timestamp",
          "type": "uint256"
        },
        {
          "indexed": false,
          "internalType": "uint256",
          "name": "yearExpired",
          "type": "uint256"
        }
      ],
      "name": "Mint",
      "type": "event"
    },
    {
      "anonymous": false,
      "inputs": [
        {
          "indexed": false,
          "internalType": "address",
          "name": "account",
          "type": "address"
        }
      ],
      "name": "Paused",
      "type": "event"
    },
    {
      "anonymous": false,
      "inputs": [
        {
          "indexed": true,
          "internalType": "bytes32",
          "name": "role",
          "type": "bytes32"
        },
        {
          "indexed": true,
          "internalType": "bytes32",
          "name": "previousAdminRole",
          "type": "bytes32"
        },
        {
          "indexed": true,
          "internalType": "bytes32",
          "name": "newAdminRole",
          "type": "bytes32"
        }
      ],
      "name": "RoleAdminChanged",
      "type": "event"
    },
    {
      "anonymous": false,
      "inputs": [
        {
          "indexed": true,
          "internalType": "bytes32",
          "name": "role",
          "type": "bytes32"
        },
        {
          "indexed": true,
          "internalType": "address",
          "name": "account",
          "type": "address"
        },
        {
          "indexed": true,
          "internalType": "address",
          "name": "sender",
          "type": "address"
        }
      ],
      "name": "RoleGranted",
      "type": "event"
    },
    {
      "anonymous": false,
      "inputs": [
        {
          "indexed": true,
          "internalType": "bytes32",
          "name": "role",
          "type": "bytes32"
        },
        {
          "indexed": true,
          "internalType": "address",
          "name": "account",
          "type": "address"
        },
        {
          "indexed": true,
          "internalType": "address",
          "name": "sender",
          "type": "address"
        }
      ],
      "name": "RoleRevoked",
      "type": "event"
    },
    {
      "anonymous": false,
      "inputs": [
        {
          "indexed": true,
          "internalType": "address",
          "name": "from",
          "type": "address"
        },
        {
          "indexed": true,
          "internalType": "address",
          "name": "to",
          "type": "address"
        },
        {
          "indexed": true,
          "internalType": "uint256",
          "name": "tokenId",
          "type": "uint256"
        }
      ],
      "name": "Transfer",
      "type": "event"
    },
    {
      "anonymous": false,
      "inputs": [
        {
          "indexed": false,
          "internalType": "address",
          "name": "account",
          "type": "address"
        }
      ],
      "name": "Unpaused",
      "type": "event"
    },
    {
      "inputs": [],
      "name": "BURNER_ROLE",
      "outputs": [
        {
          "internalType": "bytes32",
          "name": "",
          "type": "bytes32"
        }
      ],
      "stateMutability": "view",
      "type": "function",
      "constant": true
    },
    {
      "inputs": [],
      "name": "DEFAULT_ADMIN_ROLE",
      "outputs": [
        {
          "internalType": "bytes32",
          "name": "",
          "type": "bytes32"
        }
      ],
      "stateMutability": "view",
      "type": "function",
      "constant": true
    },
    {
      "inputs": [],
      "name": "MINTER_ROLE",
      "outputs": [
        {
          "internalType": "bytes32",
          "name": "",
          "type": "bytes32"
        }
      ],
      "stateMutability": "view",
      "type": "function",
      "constant": true
    },
    {
      "inputs": [],
      "name": "PAUSER_ROLE",
      "outputs": [
        {
          "internalType": "bytes32",
          "name": "",
          "type": "bytes32"
        }
      ],
      "stateMutability": "view",
      "type": "function",
      "constant": true
    },
    {
      "inputs": [],
      "name": "TRANSFER_ROLE",
      "outputs": [
        {
          "internalType": "bytes32",
          "name": "",
          "type": "bytes32"
        }
      ],
      "stateMutability": "view",
      "type": "function",
      "constant": true
    },
    {
      "inputs": [
        {
          "internalType": "address",
          "name": "to",
          "type": "address"
        },
        {
          "internalType": "uint256",
          "name": "tokenId",
          "type": "uint256"
        }
      ],
      "name": "approve",
      "outputs": [],
      "stateMutability": "nonpayable",
      "type": "function"
    },
    {
      "inputs": [
        {
          "internalType": "address",
          "name": "owner",
          "type": "address"
        }
      ],
      "name": "balanceOf",
      "outputs": [
        {
          "internalType": "uint256",
          "name": "",
          "type": "uint256"
        }
      ],
      "stateMutability": "view",
      "type": "function",
      "constant": true
    },
    {
      "inputs": [
        {
          "internalType": "uint256",
          "name": "tokenId",
          "type": "uint256"
        }
      ],
      "name": "burn",
      "outputs": [],
      "stateMutability": "nonpayable",
      "type": "function"
    },
    {
      "inputs": [
        {
          "internalType": "uint256",
          "name": "tokenId",
          "type": "uint256"
        }
      ],
      "name": "getApproved",
      "outputs": [
        {
          "internalType": "address",
          "name": "",
          "type": "address"
        }
      ],
      "stateMutability": "view",
      "type": "function",
      "constant": true
    },
    {
      "inputs": [
        {
          "internalType": "bytes32",
          "name": "role",
          "type": "bytes32"
        }
      ],
      "name": "getRoleAdmin",
      "outputs": [
        {
          "internalType": "bytes32",
          "name": "",
          "type": "bytes32"
        }
      ],
      "stateMutability": "view",
      "type": "function",
      "constant": true
    },
    {
      "inputs": [
        {
          "internalType": "bytes32",
          "name": "role",
          "type": "bytes32"
        },
        {
          "internalType": "uint256",
          "name": "index",
          "type": "uint256"
        }
      ],
      "name": "getRoleMember",
      "outputs": [
        {
          "internalType": "address",
          "name": "",
          "type": "address"
        }
      ],
      "stateMutability": "view",
      "type": "function",
      "constant": true
    },
    {
      "inputs": [
        {
          "internalType": "bytes32",
          "name": "role",
          "type": "bytes32"
        }
      ],
      "name": "getRoleMemberCount",
      "outputs": [
        {
          "internalType": "uint256",
          "name": "",
          "type": "uint256"
        }
      ],
      "stateMutability": "view",
      "type": "function",
      "constant": true
    },
    {
      "inputs": [
        {
          "internalType": "bytes32",
          "name": "role",
          "type": "bytes32"
        },
        {
          "internalType": "address",
          "name": "account",
          "type": "address"
        }
      ],
      "name": "grantRole",
      "outputs": [],
      "stateMutability": "nonpayable",
      "type": "function"
    },
    {
      "inputs": [
        {
          "internalType": "bytes32",
          "name": "role",
          "type": "bytes32"
        },
        {
          "internalType": "address",
          "name": "account",
          "type": "address"
        }
      ],
      "name": "hasRole",
      "outputs": [
        {
          "internalType": "bool",
          "name": "",
          "type": "bool"
        }
      ],
      "stateMutability": "view",
      "type": "function",
      "constant": true
    },
    {
      "inputs": [
        {
          "internalType": "address",
          "name": "owner",
          "type": "address"
        },
        {
          "internalType": "address",
          "name": "operator",
          "type": "address"
        }
      ],
      "name": "isApprovedForAll",
      "outputs": [
        {
          "internalType": "bool",
          "name": "",
          "type": "bool"
        }
      ],
      "stateMutability": "view",
      "type": "function",
      "constant": true
    },
    {
      "inputs": [],
      "name": "name",
      "outputs": [
        {
          "internalType": "string",
          "name": "",
          "type": "string"
        }
      ],
      "stateMutability": "view",
      "type": "function",
      "constant": true
    },
    {
      "inputs": [
        {
          "internalType": "uint256",
          "name": "tokenId",
          "type": "uint256"
        }
      ],
      "name": "ownerOf",
      "outputs": [
        {
          "internalType": "address",
          "name": "",
          "type": "address"
        }
      ],
      "stateMutability": "view",
      "type": "function",
      "constant": true
    },
    {
      "inputs": [],
      "name": "paused",
      "outputs": [
        {
          "internalType": "bool",
          "name": "",
          "type": "bool"
        }
      ],
      "stateMutability": "view",
      "type": "function",
      "constant": true
    },
    {
      "inputs": [
        {
          "internalType": "bytes32",
          "name": "role",
          "type": "bytes32"
        },
        {
          "internalType": "address",
          "name": "account",
          "type": "address"
        }
      ],
      "name": "renounceRole",
      "outputs": [],
      "stateMutability": "nonpayable",
      "type": "function"
    },
    {
      "inputs": [
        {
          "internalType": "bytes32",
          "name": "role",
          "type": "bytes32"
        },
        {
          "internalType": "address",
          "name": "account",
          "type": "address"
        }
      ],
      "name": "revokeRole",
      "outputs": [],
      "stateMutability": "nonpayable",
      "type": "function"
    },
    {
      "inputs": [
        {
          "internalType": "address",
          "name": "operator",
          "type": "address"
        },
        {
          "internalType": "bool",
          "name": "approved",
          "type": "bool"
        }
      ],
      "name": "setApprovalForAll",
      "outputs": [],
      "stateMutability": "nonpayable",
      "type": "function"
    },
    {
      "inputs": [],
      "name": "symbol",
      "outputs": [
        {
          "internalType": "string",
          "name": "",
          "type": "string"
        }
      ],
      "stateMutability": "view",
      "type": "function",
      "constant": true
    },
    {
      "inputs": [
        {
          "internalType": "uint256",
          "name": "index",
          "type": "uint256"
        }
      ],
      "name": "tokenByIndex",
      "outputs": [
        {
          "internalType": "uint256",
          "name": "",
          "type": "uint256"
        }
      ],
      "stateMutability": "view",
      "type": "function",
      "constant": true
    },
    {
      "inputs": [
        {
          "internalType": "address",
          "name": "owner",
          "type": "address"
        },
        {
          "internalType": "uint256",
          "name": "index",
          "type": "uint256"
        }
      ],
      "name": "tokenOfOwnerByIndex",
      "outputs": [
        {
          "internalType": "uint256",
          "name": "",
          "type": "uint256"
        }
      ],
      "stateMutability": "view",
      "type": "function",
      "constant": true
    },
    {
      "inputs": [
        {
          "internalType": "uint256",
          "name": "tokenId",
          "type": "uint256"
        }
      ],
      "name": "tokenURI",
      "outputs": [
        {
          "internalType": "string",
          "name": "",
          "type": "string"
        }
      ],
      "stateMutability": "view",
      "type": "function",
      "constant": true
    },
    {
      "inputs": [],
      "name": "totalSupply",
      "outputs": [
        {
          "internalType": "uint256",
          "name": "",
          "type": "uint256"
        }
      ],
      "stateMutability": "view",
      "type": "function",
      "constant": true
    },
    {
      "inputs": [
        {
          "internalType": "bytes4",
          "name": "interfaceId",
          "type": "bytes4"
        }
      ],
      "name": "supportsInterface",
      "outputs": [
        {
          "internalType": "bool",
          "name": "",
          "type": "bool"
        }
      ],
      "stateMutability": "view",
      "type": "function",
      "constant": true
    },
    {
      "inputs": [],
      "name": "unpause",
      "outputs": [],
      "stateMutability": "nonpayable",
      "type": "function"
    },
    {
      "inputs": [
        {
          "internalType": "address",
          "name": "from",
          "type": "address"
        },
        {
          "internalType": "address",
          "name": "to",
          "type": "address"
        },
        {
          "internalType": "uint256",
          "name": "tokenId",
          "type": "uint256"
        }
      ],
      "name": "transferFrom",
      "outputs": [],
      "stateMutability": "nonpayable",
      "type": "function"
    },
    {
      "inputs": [
        {
          "internalType": "address",
          "name": "from",
          "type": "address"
        },
        {
          "internalType": "address",
          "name": "to",
          "type": "address"
        },
        {
          "internalType": "uint256",
          "name": "tokenId",
          "type": "uint256"
        }
      ],
      "name": "safeTransferFrom",
      "outputs": [],
      "stateMutability": "nonpayable",
      "type": "function"
    },
    {
      "inputs": [
        {
          "internalType": "address",
          "name": "from",
          "type": "address"
        },
        {
          "internalType": "address",
          "name": "to",
          "type": "address"
        },
        {
          "internalType": "uint256",
          "name": "tokenId",
          "type": "uint256"
        },
        {
          "internalType": "bytes",
          "name": "_data",
          "type": "bytes"
        }
      ],
      "name": "safeTransferFrom",
      "outputs": [],
      "stateMutability": "nonpayable",
      "type": "function"
    },
    {
      "inputs": [
        {
          "internalType": "string",
          "name": "_key",
          "type": "string"
        },
        {
          "internalType": "address",
          "name": "to",
          "type": "address"
        }
      ],
      "name": "approveMint",
      "outputs": [],
      "stateMutability": "nonpayable",
      "type": "function"
    },
    {
      "inputs": [
        {
          "internalType": "address",
          "name": "to",
          "type": "address"
        }
      ],
      "name": "getMintKey",
      "outputs": [
        {
          "internalType": "string",
          "name": "",
          "type": "string"
        }
      ],
      "stateMutability": "view",
      "type": "function",
      "constant": true
    },
    {
      "inputs": [
        {
          "internalType": "address",
          "name": "to",
          "type": "address"
        }
      ],
      "name": "approveTransfer",
      "outputs": [],
      "stateMutability": "nonpayable",
      "type": "function"
    },
    {
      "inputs": [
        {
          "internalType": "address",
          "name": "from",
          "type": "address"
        }
      ],
      "name": "getTransferKey",
      "outputs": [
        {
          "internalType": "bool",
          "name": "",
          "type": "bool"
        }
      ],
      "stateMutability": "view",
      "type": "function",
      "constant": true
    },
    {
      "inputs": [
        {
          "internalType": "string",
          "name": "_ens",
          "type": "string"
        },
        {
          "internalType": "string",
          "name": "_uid",
          "type": "string"
        },
        {
          "internalType": "string",
          "name": "_exchange",
          "type": "string"
        },
        {
          "internalType": "string",
          "name": "_key",
          "type": "string"
        }
      ],
      "name": "mint",
      "outputs": [],
      "stateMutability": "nonpayable",
      "type": "function"
    },
    {
      "inputs": [
        {
          "internalType": "uint256",
          "name": "_tokenId",
          "type": "uint256"
        }
      ],
      "name": "getUid",
      "outputs": [
        {
          "internalType": "string",
          "name": "",
          "type": "string"
        }
      ],
      "stateMutability": "view",
      "type": "function",
      "constant": true
    },
    {
      "inputs": [
        {
          "internalType": "uint256",
          "name": "_tokenId",
          "type": "uint256"
        }
      ],
      "name": "getEns",
      "outputs": [
        {
          "internalType": "string",
          "name": "",
          "type": "string"
        }
      ],
      "stateMutability": "view",
      "type": "function",
      "constant": true
    },
    {
      "inputs": [
        {
          "internalType": "uint256",
          "name": "_tokenId",
          "type": "uint256"
        }
      ],
      "name": "getExchange",
      "outputs": [
        {
          "internalType": "string",
          "name": "",
          "type": "string"
        }
      ],
      "stateMutability": "view",
      "type": "function",
      "constant": true
    },
    {
      "inputs": [
        {
          "internalType": "uint256",
          "name": "_tokenId",
          "type": "uint256"
        }
      ],
      "name": "getExpry",
      "outputs": [
        {
          "internalType": "uint8",
          "name": "day",
          "type": "uint8"
        },
        {
          "internalType": "uint8",
          "name": "month",
          "type": "uint8"
        },
        {
          "internalType": "uint16",
          "name": "year",
          "type": "uint16"
        }
      ],
      "stateMutability": "view",
      "type": "function",
      "constant": true
    },
    {
      "inputs": [
        {
          "internalType": "uint256",
          "name": "_tokenId",
          "type": "uint256"
        }
      ],
      "name": "isValidAid",
      "outputs": [
        {
          "internalType": "bool",
          "name": "",
          "type": "bool"
        }
      ],
      "stateMutability": "view",
      "type": "function",
      "constant": true
    }
  ],
  "bytecode": "0x60806040523480156200001157600080fd5b50604080518082018252600a81527f41746c616e74696349640000000000000000000000000000000000000000000060208083019182528351808501909452600384527f41494400000000000000000000000000000000000000000000000000000000009084015281519192916200008c91600291620003a5565b508051620000a2906003906020840190620003a5565b5050600c805460ff1916905550620000c2640100000000620001e3810204565b600e8054600160a060020a031916600160a060020a0392909216918217905562000117907f9f2df0fed2c77648de5860a4cc508cd0818c85b8b8a1ab4ceeef8d981c8956a690640100000000620001e7810204565b600e5462000159907f65d7a28e3265b37a6474929f336521b332c1681b933f6cb9f3376673440d862a90600160a060020a0316640100000000620001e7810204565b600e546200019b907f3c11d16cbaffd01df69ce1c404f6340ee057498f5f00246190ea54220576a84890600160a060020a0316640100000000620001e7810204565b600e54620001dd907f8502233096d909befbda0999bb8ea2f3a6be3c138b9fbf003752a4c8bce86f6c90600160a060020a0316640100000000620001e7810204565b620004a1565b3390565b620001fc828264010000000062000200810204565b5050565b6200021a828264010000000062001ffa6200024782021704565b60008281526001602052604090206200024290826401000000006200207e620002e382021704565b505050565b6200025c82826401000000006200030c810204565b620001fc57600082815260208181526040808320600160a060020a03851684529091529020805460ff191660011790556200029f640100000000620001e3810204565b600160a060020a031681600160a060020a0316837f2f8788117e7eff1d82e926ec794901d17c78024a50270940304540a733656f0d60405160405180910390a45050565b60006200030383600160a060020a03841664010000000062000335810204565b90505b92915050565b600091825260208281526040808420600160a060020a0393909316845291905290205460ff1690565b60006200034c83836401000000006200038d810204565b620003845750815460018181018455600084815260208082209093018490558454848252828601909352604090209190915562000306565b50600062000306565b60009081526001919091016020526040902054151590565b828054620003b3906200044b565b90600052602060002090601f016020900481019282620003d7576000855562000422565b82601f10620003f257805160ff191683800117855562000422565b8280016001018555821562000422579182015b828111156200042257825182559160200191906001019062000405565b506200043092915062000434565b5090565b5b8082111562000430576000815560010162000435565b6002810460018216806200046057607f821691505b602082108114156200049b577f4e487b7100000000000000000000000000000000000000000000000000000000600052602260045260246000fd5b50919050565b61418380620004b16000396000f3fe608060405234801561001057600080fd5b5060043610610270576000357c0100000000000000000000000000000000000000000000000000000000900480634f6ccce711610163578063a22cb465116100e0578063d5391393116100a4578063d539139314610571578063d547741f14610598578063de9a62c8146105ab578063e63ab1e9146105be578063e985e9c5146105e5578063eb03b5781461062157600080fd5b8063a22cb46514610512578063ac62b19414610525578063b88d4fde14610538578063c87b56dd1461054b578063ca15c8731461055e57600080fd5b806378b51d531161012757806378b51d53146104c95780639010d07c146104dc57806391d14854146104ef57806395d89b4114610502578063a217fddf1461050a57600080fd5b80634f6ccce7146104725780635c975abb146104855780636352211e14610490578063657d2adc146104a357806370a08231146104b657600080fd5b8063248a9ca3116101f157806336568abe116101b557806336568abe1461041e5780633f4ba83a1461043157806342842e0e1461043957806342966c681461044c5780634355b9d21461045f57600080fd5b8063248a9ca314610377578063282c51f31461039a5780632eeb78ce146103c15780632f2ff15d146103f85780632f745c591461040b57600080fd5b8063095ea7b311610238578063095ea7b3146103055780630b9d58471461031857806318160ddd1461032b578063206b60f91461033d57806323b872dd1461036457600080fd5b806301ffc9a71461027557806302341c711461029d57806306fdde03146102b2578063081812fc146102c7578063090fdeb9146102f2575b600080fd5b6102886102833660046138e0565b610634565b60405190151581526020015b60405180910390f35b6102b06102ab3660046139ac565b610645565b005b6102ba610958565b6040516102949190613ab1565b6102da6102d5366004613ac4565b6109ea565b604051600160a060020a039091168152602001610294565b6102ba610300366004613af9565b610a86565b6102b0610313366004613b14565b610be3565b6102ba610326366004613ac4565b610d1b565b600a545b604051908152602001610294565b61032f7f8502233096d909befbda0999bb8ea2f3a6be3c138b9fbf003752a4c8bce86f6c81565b6102b0610372366004613b3e565b610d61565b61032f610385366004613ac4565b60009081526020819052604090206001015490565b61032f7f3c11d16cbaffd01df69ce1c404f6340ee057498f5f00246190ea54220576a84881565b6103d46103cf366004613ac4565b610e17565b6040805160ff948516815293909216602084015261ffff1690820152606001610294565b6102b0610406366004613b7a565b6110b9565b61032f610419366004613b14565b6110df565b6102b061042c366004613b7a565b61118a565b6102b0611219565b6102b0610447366004613b3e565b6112c4565b6102b061045a366004613ac4565b6112df565b6102b061046d366004613af9565b61136a565b61032f610480366004613ac4565b611453565b600c5460ff16610288565b6102da61049e366004613ac4565b6114fa565b6102886104b1366004613ac4565b611588565b61032f6104c4366004613af9565b611a85565b6102b06104d7366004613ba6565b611b22565b6102da6104ea366004613beb565b611c10565b6102886104fd366004613b7a565b611c2f565b6102ba611c58565b61032f600081565b6102b0610520366004613c0d565b611c67565b610288610533366004613af9565b611c72565b6102b0610546366004613c49565b611d46565b6102ba610559366004613ac4565b611d88565b61032f61056c366004613ac4565b611e63565b61032f7f9f2df0fed2c77648de5860a4cc508cd0818c85b8b8a1ab4ceeef8d981c8956a681565b6102b06105a6366004613b7a565b611e7a565b6102ba6105b9366004613ac4565b611ea0565b61032f7f65d7a28e3265b37a6474929f336521b332c1681b933f6cb9f3376673440d862a81565b6102886105f3366004613cb9565b600160a060020a03918216600090815260076020908152604080832093909416825291909152205460ff1690565b6102ba61062f366004613ac4565b611fb4565b600061063f82612093565b92915050565b3381806040516020016106589190613ce3565b60408051601f198184030181528282528051602091820120600160a060020a038616600090815260128352929092209192610694929101613d3d565b6040516020818303038152906040528051906020012014156108da574260006106bc600f5490565b905060006106c9836120d1565b80519091506106d9906001613df5565b61ffff1681526040805160a0810182528a8152602081018a9052908101889052606081018390526080810182905260116000610714600f5490565b815260208082019290925260400160002082518051919261073a928492909101906137fb565b50602082810151805161075392600185019201906137fb565b506040820151805161076f9160028401916020909101906137fb565b50606082810151600383015560809283015180516004909301805460208301516040840151948401519684015160a085015160c09095015161ffff90971662ffffff19909316929092176201000060ff928316021764ffff000000191663010000009582169590950264ff00000000191694909417640100000000968516969096029590951766ffff00000000001916650100000000009584169590950266ff0000000000001916949094176601000000000000918316919091021767ff000000000000001916670100000000000000919092160217905561085133836122b9565b600e5461086790600160a060020a031683610be3565b8051604080518481526020810186905261ffff90921682820152517f070aa035fe0a09f0d9305bdc2d7a5d93cd4733db3b1ff869b4a7033c9501909a9181900360600190a16108ba600f80546001019055565b3360009081526012602052604081206108d29161387f565b505050610950565b60405160e560020a62461bcd02815260206004820152603460248201527f4163636f756e7420286d73672e73656e64657229206d7573742068617665206160448201527f6e20617070726f766564206d696e74206b65792e00000000000000000000000060648201526084015b60405180910390fd5b505050505050565b60606002805461096790613cff565b80601f016020809104026020016040519081016040528092919081815260200182805461099390613cff565b80156109e05780601f106109b5576101008083540402835291602001916109e0565b820191906000526020600020905b8154815290600101906020018083116109c357829003601f168201915b5050505050905090565b60006109f5826122d3565b610a6a5760405160e560020a62461bcd02815260206004820152602c60248201527f4552433732313a20617070726f76656420717565727920666f72206e6f6e657860448201527f697374656e7420746f6b656e00000000000000000000000000000000000000006064820152608401610947565b50600090815260066020526040902054600160a060020a031690565b600e54606090600160a060020a031633600160a060020a031614610b3b5760405160e560020a62461bcd02815260206004820152604960248201527f4552433732314765744d696e744b65793a206d75737420626520746865206f7760448201527f6e6572206f662074686520636f6e747261637420746f2072657472696576652060648201527f6d696e74206b65792e0000000000000000000000000000000000000000000000608482015260a401610947565b600160a060020a03821660009081526012602052604090208054610b5e90613cff565b80601f0160208091040260200160405190810160405280929190818152602001828054610b8a90613cff565b8015610bd75780601f10610bac57610100808354040283529160200191610bd7565b820191906000526020600020905b815481529060010190602001808311610bba57829003601f168201915b50505050509050919050565b6000610bee826114fa565b905080600160a060020a031683600160a060020a03161415610c7b5760405160e560020a62461bcd02815260206004820152602160248201527f4552433732313a20617070726f76616c20746f2063757272656e74206f776e6560448201527f72000000000000000000000000000000000000000000000000000000000000006064820152608401610947565b33600160a060020a0382161480610c975750610c9781336105f3565b610d0c5760405160e560020a62461bcd02815260206004820152603860248201527f4552433732313a20617070726f76652063616c6c6572206973206e6f74206f7760448201527f6e6572206e6f7220617070726f76656420666f7220616c6c00000000000000006064820152608401610947565b610d1683836122f0565b505050565b6060610d26826122d3565b610d455760405160e560020a62461bcd02815260040161094790613e1b565b60008281526011602052604090206002018054610b5e90613cff565b3360008181526013602052604090205460ff1615610da057610d8484848461236b565b336000908152601360205260409020805460ff19169055610e11565b60405160e560020a62461bcd02815260206004820152603860248201527f4163636f756e7420286d73672e73656e64657229206d7573742068617665206160448201527f6e20617070726f766564207472616e73666572206b65792e00000000000000006064820152608401610947565b50505050565b6000806000610e25846122d3565b610e445760405160e560020a62461bcd02815260040161094790613e1b565b600084815260116020526040808220815160a08101909252805482908290610e6b90613cff565b80601f0160208091040260200160405190810160405280929190818152602001828054610e9790613cff565b8015610ee45780601f10610eb957610100808354040283529160200191610ee4565b820191906000526020600020905b815481529060010190602001808311610ec757829003601f168201915b50505050508152602001600182018054610efd90613cff565b80601f0160208091040260200160405190810160405280929190818152602001828054610f2990613cff565b8015610f765780601f10610f4b57610100808354040283529160200191610f76565b820191906000526020600020905b815481529060010190602001808311610f5957829003601f168201915b50505050508152602001600282018054610f8f90613cff565b80601f0160208091040260200160405190810160405280929190818152602001828054610fbb90613cff565b80156110085780601f10610fdd57610100808354040283529160200191611008565b820191906000526020600020905b815481529060010190602001808311610feb57829003601f168201915b505050918352505060038201546020808301919091526040805160e08101825260049094015461ffff8116855260ff62010000820481168685015263010000008204811686840152640100000000820481166060870152650100000000008204811660808088019190915266010000000000008304821660a08801526701000000000000009092041660c0860152928101939093529201519081015191810151905191955093509150509193909250565b6000828152602081905260409020600101546110d58133612556565b610d1683836125bd565b60006110ea83611a85565b82106111615760405160e560020a62461bcd02815260206004820152602b60248201527f455243373231456e756d657261626c653a206f776e657220696e646578206f7560448201527f74206f6620626f756e64730000000000000000000000000000000000000000006064820152608401610947565b50600160a060020a03919091166000908152600860209081526040808320938352929052205490565b600160a060020a038116331461120b5760405160e560020a62461bcd02815260206004820152602f60248201527f416363657373436f6e74726f6c3a2063616e206f6e6c792072656e6f756e636560448201527f20726f6c657320666f722073656c6600000000000000000000000000000000006064820152608401610947565b61121582826125df565b5050565b6112437f65d7a28e3265b37a6474929f336521b332c1681b933f6cb9f3376673440d862a33611c2f565b6112ba576040805160e560020a62461bcd0281526020600482015260248101919091527f4552433732315072657365744d696e7465725061757365724175746f49643a2060448201527f6d75737420686176652070617573657220726f6c6520746f20756e70617573656064820152608401610947565b6112c2612601565b565b610d1683838360405180602001604052806000815250611d46565b6112e93382612695565b61135e5760405160e560020a62461bcd02815260206004820152603060248201527f4552433732314275726e61626c653a2063616c6c6572206973206e6f74206f7760448201527f6e6572206e6f7220617070726f766564000000000000000000000000000000006064820152608401610947565b61136781612793565b50565b6113947f8502233096d909befbda0999bb8ea2f3a6be3c138b9fbf003752a4c8bce86f6c33611c2f565b61142f5760405160e560020a62461bcd02815260206004820152604e60248201527f455243373231417070726f7665645472616e736665723a206d7573742068617660448201527f65205452414e534645525f524f4c45206f72206265206f776e657220746f206160648201527f6c6c6f77207472616e736665722e000000000000000000000000000000000000608482015260a401610947565b600160a060020a03166000908152601360205260409020805460ff19166001179055565b600061145e600a5490565b82106114d55760405160e560020a62461bcd02815260206004820152602c60248201527f455243373231456e756d657261626c653a20676c6f62616c20696e646578206f60448201527f7574206f6620626f756e647300000000000000000000000000000000000000006064820152608401610947565b600a82815481106114e8576114e8613e52565b90600052602060002001549050919050565b600081815260046020526040812054600160a060020a03168061063f5760405160e560020a62461bcd02815260206004820152602960248201527f4552433732313a206f776e657220717565727920666f72206e6f6e657869737460448201527f656e7420746f6b656e00000000000000000000000000000000000000000000006064820152608401610947565b6000611593826122d3565b6115b25760405160e560020a62461bcd02815260040161094790613e1b565b6040517f92d6631300000000000000000000000000000000000000000000000000000000815242600482015260009073__DateTime______________________________906392d6631390602401602060405180830381865af415801561161d573d6000803e3d6000fd5b505050506040513d601f19601f820116820180604052508101906116419190613e6b565b6040517fa324ad2400000000000000000000000000000000000000000000000000000000815242600482015290915060009073__DateTime______________________________9063a324ad2490602401602060405180830381865af41580156116af573d6000803e3d6000fd5b505050506040513d601f19601f820116820180604052508101906116d39190613e8f565b6040517f65c7284000000000000000000000000000000000000000000000000000000000815242600482015290915060009073__DateTime______________________________906365c7284090602401602060405180830381865af4158015611741573d6000803e3d6000fd5b505050506040513d601f19601f820116820180604052508101906117659190613e8f565b90506000601160008781526020019081526020016000206040518060a001604052908160008201805461179790613cff565b80601f01602080910402602001604051908101604052809291908181526020018280546117c390613cff565b80156118105780601f106117e557610100808354040283529160200191611810565b820191906000526020600020905b8154815290600101906020018083116117f357829003601f168201915b5050505050815260200160018201805461182990613cff565b80601f016020809104026020016040519081016040528092919081815260200182805461185590613cff565b80156118a25780601f10611877576101008083540402835291602001916118a2565b820191906000526020600020905b81548152906001019060200180831161188557829003601f168201915b505050505081526020016002820180546118bb90613cff565b80601f01602080910402602001604051908101604052809291908181526020018280546118e790613cff565b80156119345780601f1061190957610100808354040283529160200191611934565b820191906000526020600020905b81548152906001019060200180831161191757829003601f168201915b505050918352505060038201546020808301919091526040805160e08101825260049094015461ffff808216865260ff62010000830481168786015263010000008304811687850152640100000000830481166060880152650100000000008304811660808089019190915266010000000000008404821660a08901526701000000000000009093041660c08701529382019490945292840151805191810151938101519495509390929188811690841610156119fb575060019998505050505050505050565b8761ffff168361ffff161115611a1b575060009998505050505050505050565b8160ff168760ff161015611a39575060019998505050505050505050565b8160ff168760ff161115611a57575060009998505050505050505050565b8060ff168660ff161015611a75575060019998505050505050505050565b5060009998505050505050505050565b6000600160a060020a038216611b065760405160e560020a62461bcd02815260206004820152602a60248201527f4552433732313a2062616c616e636520717565727920666f7220746865207a6560448201527f726f2061646472657373000000000000000000000000000000000000000000006064820152608401610947565b50600160a060020a031660009081526005602052604090205490565b611b4c7f9f2df0fed2c77648de5860a4cc508cd0818c85b8b8a1ab4ceeef8d981c8956a633611c2f565b611be75760405160e560020a62461bcd02815260206004820152604760248201527f455243373231417070726f7665644d696e743a206d7573742068617665204d4960448201527f4e5445525f524f4c45206f72206265206f776e657220746f20616c6c6f77206d60648201527f696e74696e672e00000000000000000000000000000000000000000000000000608482015260a401610947565b600160a060020a03811660009081526012602090815260409091208351610d16928501906137fb565b6000828152600160205260408120611c289083612847565b9392505050565b600091825260208281526040808420600160a060020a0393909316845291905290205460ff1690565b60606003805461096790613cff565b611215338383612853565b600e54600090600160a060020a031633600160a060020a031614611d275760405160e560020a62461bcd02815260206004820152605060248201527f4552433732314765745472616e736665724b65793a206d75737420626520746860448201527f65206f776e6572206f662074686520636f6e747261637420746f20726574726960648201527f657665207472616e73666572206b657900000000000000000000000000000000608482015260a401610947565b50600160a060020a031660009081526013602052604090205460ff1690565b3360008181526013602052604090205460ff1615610da057611d6a85858585612925565b5050336000908152601360205260409020805460ff19169055505050565b6060611d93826122d3565b611e085760405160e560020a62461bcd02815260206004820152602f60248201527f4552433732314d657461646174613a2055524920717565727920666f72206e6f60448201527f6e6578697374656e7420746f6b656e00000000000000000000000000000000006064820152608401610947565b6000611e1261295b565b90506000815111611e325760405180602001604052806000815250611c28565b80611e3c8461296a565b604051602001611e4d929190613eb2565b6040516020818303038152906040529392505050565b600081815260016020526040812061063f90612aa3565b600082815260208190526040902060010154611e968133612556565b610d1683836125df565b6060611eab826122d3565b611eca5760405160e560020a62461bcd02815260040161094790613e1b565b600e54604051600160a060020a039091166c0100000000000000000000000002602082015260340160405160208183030381529060405280519060200120611f0f3390565b604051600160a060020a03919091166c010000000000000000000000000260208201526034016040516020818303038152906040528051906020012014611f9b5760405160e560020a62461bcd02815260206004820152600860248201527f4552433732313a200000000000000000000000000000000000000000000000006044820152606401610947565b60008281526011602052604090208054610b5e90613cff565b6060611fbf826122d3565b611fde5760405160e560020a62461bcd02815260040161094790613e1b565b60008281526011602052604090206001018054610b5e90613cff565b6120048282611c2f565b61121557600082815260208181526040808320600160a060020a03851684529091529020805460ff1916600117905561203a3390565b600160a060020a031681600160a060020a0316837f2f8788117e7eff1d82e926ec794901d17c78024a50270940304540a733656f0d60405160405180910390a45050565b6000611c2883600160a060020a038416612aad565b6000600160e060020a031982167f780e9d6300000000000000000000000000000000000000000000000000000000148061063f575061063f82612afc565b6040805160e081018252600080825260208201819052918101829052606081018290526080810182905260a0810182905260c0810182905290808061211585612b6e565b61ffff1684526121266107b2612c63565b84516121359061ffff16612c63565b61213f9190613ed8565b915061214f826301e28500613eef565b6121599084613f0e565b9250816107b2856000015161216e9190613f26565b61ffff1661217c9190613ed8565b61218a906301e13380613eef565b6121949084613f0e565b92506000600191505b600c8260ff1611612205576121b6828660000151612ca8565b6121c69060ff1662015180613eef565b9050856121d38583613f0e565b11156121e75760ff82166020860152612205565b6121f18185613f0e565b9350816121fd81613f49565b92505061219d565b600191505b61221c85602001518660000151612ca8565b60ff168260ff161161226b57856122368562015180613f0e565b111561224a5760ff8216604086015261226b565b6122576201518085613f0e565b93508161226381613f49565b92505061220a565b61227486612d6e565b60ff16606086015261228586612d92565b60ff16608086015261229686612da0565b60ff1660a08601526122a786612dad565b60ff1660c08601525092949350505050565b611215828260405180602001604052806000815250612dc9565b600090815260046020526040902054600160a060020a0316151590565b6000818152600660205260409020805473ffffffffffffffffffffffffffffffffffffffff1916600160a060020a0384169081179091558190612332826114fa565b600160a060020a03167f8c5be1e5ebec7d5bd14f71427d1e84f3dd0314c0f7b2291e5b200ac8c7c3b92560405160405180910390a45050565b82600160a060020a031661237e826114fa565b600160a060020a0316146123fd5760405160e560020a62461bcd02815260206004820152602560248201527f4552433732313a207472616e736665722066726f6d20696e636f72726563742060448201527f6f776e65720000000000000000000000000000000000000000000000000000006064820152608401610947565b600160a060020a03821661247b5760405160e560020a62461bcd028152602060048201526024808201527f4552433732313a207472616e7366657220746f20746865207a65726f2061646460448201527f72657373000000000000000000000000000000000000000000000000000000006064820152608401610947565b612486838383612dff565b6124916000826122f0565b600160a060020a03831660009081526005602052604081208054600192906124ba908490613ed8565b9091555050600160a060020a03821660009081526005602052604081208054600192906124e8908490613f0e565b9091555050600081815260046020526040808220805473ffffffffffffffffffffffffffffffffffffffff1916600160a060020a0386811691821790925591518493918716917fddf252ad1be2c89b69c2b068fc378daa952ba7f163c4a11628f55a4df523b3ef91a4505050565b6125608282611c2f565b6112155761257881600160a060020a03166014612e0a565b612583836020612e0a565b604051602001612594929190613f69565b60408051601f198184030181529082905260e560020a62461bcd02825261094791600401613ab1565b6125c78282611ffa565b6000828152600160205260409020610d16908261207e565b6125e9828261300c565b6000828152600160205260409020610d169082613071565b600c5460ff166126565760405160e560020a62461bcd02815260206004820152601460248201527f5061757361626c653a206e6f74207061757365640000000000000000000000006044820152606401610947565b600c805460ff191690556040805133815290517f5db9ee0a495bf2e6ff9c91a7834c1ba4fdd244a5e8aa4e537bd38aeae4b073aa9181900360200190a1565b60006126a0826122d3565b6127155760405160e560020a62461bcd02815260206004820152602c60248201527f4552433732313a206f70657261746f7220717565727920666f72206e6f6e657860448201527f697374656e7420746f6b656e00000000000000000000000000000000000000006064820152608401610947565b6000612720836114fa565b905080600160a060020a031684600160a060020a0316148061275b575083600160a060020a0316612750846109ea565b600160a060020a0316145b8061278b5750600160a060020a0380821660009081526007602090815260408083209388168352929052205460ff165b949350505050565b600061279e826114fa565b90506127ac81600084612dff565b6127b76000836122f0565b600160a060020a03811660009081526005602052604081208054600192906127e0908490613ed8565b9091555050600082815260046020526040808220805473ffffffffffffffffffffffffffffffffffffffff1916905551839190600160a060020a038416907fddf252ad1be2c89b69c2b068fc378daa952ba7f163c4a11628f55a4df523b3ef908390a45050565b6000611c288383613086565b81600160a060020a031683600160a060020a031614156128b85760405160e560020a62461bcd02815260206004820152601960248201527f4552433732313a20617070726f766520746f2063616c6c6572000000000000006044820152606401610947565b600160a060020a03838116600081815260076020908152604080832094871680845294825291829020805460ff191686151590811790915591519182527f17307eab39ab6107e8899845ad3d59bd9653f200f220920489ca2b5937696c31910160405180910390a3505050565b61293084848461236b565b61293c848484846130b0565b610e115760405160e560020a62461bcd02815260040161094790613fea565b60606010805461096790613cff565b6060816129aa57505060408051808201909152600181527f3000000000000000000000000000000000000000000000000000000000000000602082015290565b8160005b81156129d457806129be81614047565b91506129cd9050600a8361407b565b91506129ae565b60008167ffffffffffffffff8111156129ef576129ef6138fd565b6040519080825280601f01601f191660200182016040528015612a19576020820181803683370190505b5090505b841561278b57612a2e600183613ed8565b9150612a3b600a8661408f565b612a46906030613f0e565b7f010000000000000000000000000000000000000000000000000000000000000002818381518110612a7a57612a7a613e52565b6020010190600160f860020a031916908160001a905350612a9c600a8661407b565b9450612a1d565b600061063f825490565b6000818152600183016020526040812054612af45750815460018181018455600084815260208082209093018490558454848252828601909352604090209190915561063f565b50600061063f565b6000600160e060020a031982167f80ac58cd000000000000000000000000000000000000000000000000000000001480612b5f5750600160e060020a031982167f5b5e139f00000000000000000000000000000000000000000000000000000000145b8061063f575061063f826131e3565b6000808080612b816301e133808661407b565b612b8d906107b2613f0e565b9150612b9a6107b2612c63565b612ba78361ffff16612c63565b612bb19190613ed8565b9050612bc1816301e28500613eef565b612bcb9084613f0e565b925080612bda6107b284613f26565b61ffff16612be89190613ed8565b612bf6906301e13380613eef565b612c009084613f0e565b92505b84831115612c5b57612c1e612c19600184613f26565b613221565b15612c3857612c316301e2850084613ed8565b9250612c49565b612c466301e1338084613ed8565b92505b612c54600183613f26565b9150612c03565b509392505050565b6000612c70600183613ed8565b9150612c7e6101908361407b565b612c8960648461407b565b612c9460048561407b565b612c9e9190613ed8565b61063f9190613f0e565b60008260ff1660011480612cbf57508260ff166003145b80612ccd57508260ff166005145b80612cdb57508260ff166007145b80612ce957508260ff166008145b80612cf757508260ff16600a145b80612d0557508260ff16600c145b15612d125750601f61063f565b8260ff1660041480612d2757508260ff166006145b80612d3557508260ff166009145b80612d4357508260ff16600b145b15612d505750601e61063f565b612d5982613221565b15612d665750601d61063f565b50601c61063f565b60006018603c612d7e818561407b565b612d88919061407b565b61063f919061408f565b6000603c612d88818461407b565b600061063f603c8361408f565b60006007612dbe620151808461407b565b612d88906004613f0e565b612dd38383613280565b612de060008484846130b0565b610d165760405160e560020a62461bcd02815260040161094790613fea565b610d168383836133d2565b60606000612e19836002613eef565b612e24906002613f0e565b67ffffffffffffffff811115612e3c57612e3c6138fd565b6040519080825280601f01601f191660200182016040528015612e66576020820181803683370190505b5090507f300000000000000000000000000000000000000000000000000000000000000081600081518110612e9d57612e9d613e52565b6020010190600160f860020a031916908160001a9053507f780000000000000000000000000000000000000000000000000000000000000081600181518110612ee857612ee8613e52565b6020010190600160f860020a031916908160001a9053506000612f0c846002613eef565b612f17906001613f0e565b90505b6001811115612fba577f303132333435363738396162636465660000000000000000000000000000000085600f1660108110612f5857612f58613e52565b1a7f010000000000000000000000000000000000000000000000000000000000000002828281518110612f8d57612f8d613e52565b6020010190600160f860020a031916908160001a905350601090940493612fb3816140a3565b9050612f1a565b508315611c285760405160e560020a62461bcd02815260206004820181905260248201527f537472696e67733a20686578206c656e67746820696e73756666696369656e746044820152606401610947565b6130168282611c2f565b1561121557600082815260208181526040808320600160a060020a0385168085529252808320805460ff1916905551339285917ff6391f5c32d9c69d2a47ea670b442974b53935d1edc7fd64eb21e047a839171b9190a45050565b6000611c2883600160a060020a038416613459565b600082600001828154811061309d5761309d613e52565b9060005260206000200154905092915050565b6000600160a060020a0384163b156131d8576040517f150b7a02000000000000000000000000000000000000000000000000000000008152600160a060020a0385169063150b7a029061310d9033908990889088906004016140ba565b6020604051808303816000875af1925050508015613148575060408051601f3d908101601f19168201909252613145918101906140f6565b60015b6131a5573d808015613176576040519150601f19603f3d011682016040523d82523d6000602084013e61317b565b606091505b50805161319d5760405160e560020a62461bcd02815260040161094790613fea565b805181602001fd5b600160e060020a0319167f150b7a020000000000000000000000000000000000000000000000000000000014905061278b565b506001949350505050565b6000600160e060020a031982167f5a05180f00000000000000000000000000000000000000000000000000000000148061063f575061063f8261354c565b600061322e600483614113565b61ffff161561323f57506000919050565b61324a606483614113565b61ffff161561325b57506001919050565b61326761019083614113565b61ffff161561327857506000919050565b506001919050565b600160a060020a0382166132d95760405160e560020a62461bcd02815260206004820181905260248201527f4552433732313a206d696e7420746f20746865207a65726f20616464726573736044820152606401610947565b6132e2816122d3565b156133325760405160e560020a62461bcd02815260206004820152601c60248201527f4552433732313a20746f6b656e20616c7265616479206d696e746564000000006044820152606401610947565b61333e60008383612dff565b600160a060020a0382166000908152600560205260408120805460019290613367908490613f0e565b9091555050600081815260046020526040808220805473ffffffffffffffffffffffffffffffffffffffff1916600160a060020a03861690811790915590518392907fddf252ad1be2c89b69c2b068fc378daa952ba7f163c4a11628f55a4df523b3ef908290a45050565b6133dd8383836135b3565b600c5460ff1615610d165760405160e560020a62461bcd02815260206004820152602b60248201527f4552433732315061757361626c653a20746f6b656e207472616e73666572207760448201527f68696c65207061757365640000000000000000000000000000000000000000006064820152608401610947565b6000818152600183016020526040812054801561354257600061347d600183613ed8565b855490915060009061349190600190613ed8565b90508181146134f65760008660000182815481106134b1576134b1613e52565b90600052602060002001549050808760000184815481106134d4576134d4613e52565b6000918252602080832090910192909255918252600188019052604090208390555b855486908061350757613507614134565b60019003818190600052602060002001600090559055856001016000868152602001908152602001600020600090556001935050505061063f565b600091505061063f565b6000600160e060020a031982167f7965db0b00000000000000000000000000000000000000000000000000000000148061063f57507f01ffc9a700000000000000000000000000000000000000000000000000000000600160e060020a031983161461063f565b600160a060020a03831661360e5761360981600a80546000838152600b60205260408120829055600182018355919091527fc65a7bb8d6351c1cf70c95a316cc6a92839c986682d98bc35f958f4883f9d2a80155565b613631565b81600160a060020a031683600160a060020a03161461363157613631838261366b565b600160a060020a03821661364857610d1681613708565b82600160a060020a031682600160a060020a031614610d1657610d1682826137b7565b6000600161367884611a85565b6136829190613ed8565b6000838152600960205260409020549091508082146136d557600160a060020a03841660009081526008602090815260408083208584528252808320548484528184208190558352600990915290208190555b506000918252600960209081526040808420849055600160a060020a039094168352600881528383209183525290812055565b600a5460009061371a90600190613ed8565b6000838152600b6020526040812054600a805493945090928490811061374257613742613e52565b9060005260206000200154905080600a838154811061376357613763613e52565b6000918252602080832090910192909255828152600b9091526040808220849055858252812055600a80548061379b5761379b614134565b6001900381819060005260206000200160009055905550505050565b60006137c283611a85565b600160a060020a039093166000908152600860209081526040808320868452825280832085905593825260099052919091209190915550565b82805461380790613cff565b90600052602060002090601f016020900481019282613829576000855561386f565b82601f1061384257805160ff191683800117855561386f565b8280016001018555821561386f579182015b8281111561386f578251825591602001919060010190613854565b5061387b9291506138b5565b5090565b50805461388b90613cff565b6000825580601f1061389b575050565b601f01602090049060005260206000209081019061136791905b5b8082111561387b57600081556001016138b6565b600160e060020a03198116811461136757600080fd5b6000602082840312156138f257600080fd5b8135611c28816138ca565b60e060020a634e487b7102600052604160045260246000fd5b600067ffffffffffffffff80841115613931576139316138fd565b604051601f8501601f19908116603f01168101908282118183101715613959576139596138fd565b8160405280935085815286868601111561397257600080fd5b858560208301376000602087830101525050509392505050565b600082601f83011261399d57600080fd5b611c2883833560208501613916565b600080600080608085870312156139c257600080fd5b843567ffffffffffffffff808211156139da57600080fd5b6139e68883890161398c565b955060208701359150808211156139fc57600080fd5b613a088883890161398c565b94506040870135915080821115613a1e57600080fd5b613a2a8883890161398c565b93506060870135915080821115613a4057600080fd5b50613a4d8782880161398c565b91505092959194509250565b60005b83811015613a74578181015183820152602001613a5c565b83811115610e115750506000910152565b60008151808452613a9d816020860160208601613a59565b601f01601f19169290920160200192915050565b602081526000611c286020830184613a85565b600060208284031215613ad657600080fd5b5035919050565b8035600160a060020a0381168114613af457600080fd5b919050565b600060208284031215613b0b57600080fd5b611c2882613add565b60008060408385031215613b2757600080fd5b613b3083613add565b946020939093013593505050565b600080600060608486031215613b5357600080fd5b613b5c84613add565b9250613b6a60208501613add565b9150604084013590509250925092565b60008060408385031215613b8d57600080fd5b82359150613b9d60208401613add565b90509250929050565b60008060408385031215613bb957600080fd5b823567ffffffffffffffff811115613bd057600080fd5b613bdc8582860161398c565b925050613b9d60208401613add565b60008060408385031215613bfe57600080fd5b50508035926020909101359150565b60008060408385031215613c2057600080fd5b613c2983613add565b915060208301358015158114613c3e57600080fd5b809150509250929050565b60008060008060808587031215613c5f57600080fd5b613c6885613add565b9350613c7660208601613add565b925060408501359150606085013567ffffffffffffffff811115613c9957600080fd5b8501601f81018713613caa57600080fd5b613a4d87823560208401613916565b60008060408385031215613ccc57600080fd5b613cd583613add565b9150613b9d60208401613add565b60008251613cf5818460208701613a59565b9190910192915050565b600281046001821680613d1357607f821691505b60208210811415613d375760e060020a634e487b7102600052602260045260246000fd5b50919050565b8154600090819060028104600180831680613d5957607f831692505b6020808410821415613d7c5760e060020a634e487b710286526022600452602486fd5b818015613d905760018114613da157613dce565b60ff19861689528489019650613dce565b60008a81526020902060005b86811015613dc65781548b820152908501908301613dad565b505084890196505b509498975050505050505050565b60e060020a634e487b7102600052601160045260246000fd5b600061ffff808316818516808303821115613e1257613e12613ddc565b01949350505050565b6020808252601f908201527f4552433732313a20746f6b656e496420646f6573206e6f742065786973742e00604082015260600190565b60e060020a634e487b7102600052603260045260246000fd5b600060208284031215613e7d57600080fd5b815161ffff81168114611c2857600080fd5b600060208284031215613ea157600080fd5b815160ff81168114611c2857600080fd5b60008351613ec4818460208801613a59565b835190830190613e12818360208801613a59565b600082821015613eea57613eea613ddc565b500390565b6000816000190483118215151615613f0957613f09613ddc565b500290565b60008219821115613f2157613f21613ddc565b500190565b600061ffff83811690831681811015613f4157613f41613ddc565b039392505050565b600060ff821660ff811415613f6057613f60613ddc565b60010192915050565b7f416363657373436f6e74726f6c3a206163636f756e7420000000000000000000815260008351613fa1816017850160208801613a59565b7f206973206d697373696e6720726f6c65200000000000000000000000000000006017918401918201528351613fde816028840160208801613a59565b01602801949350505050565b60208082526032908201527f4552433732313a207472616e7366657220746f206e6f6e20455243373231526560408201527f63656976657220696d706c656d656e7465720000000000000000000000000000606082015260800190565b600060001982141561405b5761405b613ddc565b5060010190565b60e060020a634e487b7102600052601260045260246000fd5b60008261408a5761408a614062565b500490565b60008261409e5761409e614062565b500690565b6000816140b2576140b2613ddc565b506000190190565b6000600160a060020a038087168352808616602084015250836040830152608060608301526140ec6080830184613a85565b9695505050505050565b60006020828403121561410857600080fd5b8151611c28816138ca565b600061ffff8084168061412857614128614062565b92169190910692915050565b60e060020a634e487b7102600052603160045260246000fdfea2646970667358221220d4b4337e6fc41ed618ccf0f99d124aa43b04b9b265e1a19431e0c2285e2479a364736f6c634300080b0033",
  "immutableReferences": {},
  "source": "// SPDX-License-Identifier: MIT\npragma solidity ^0.8.0;\n\nimport \"../node_modules/@openzeppelin/contracts/token/ERC721/ERC721.sol\";\nimport \"../node_modules/@openzeppelin/contracts/token/ERC721/extensions/ERC721Enumerable.sol\";\nimport \"../node_modules/@openzeppelin/contracts/token/ERC721/extensions/ERC721Burnable.sol\";\nimport \"../node_modules/@openzeppelin/contracts/token/ERC721/extensions/ERC721Pausable.sol\";\nimport \"../node_modules/@openzeppelin/contracts/access/AccessControlEnumerable.sol\";\nimport \"../node_modules/@openzeppelin/contracts/utils/Context.sol\";\nimport \"../node_modules/@openzeppelin/contracts/utils/Counters.sol\";\nimport \"./DateTime.sol\";\n\n/**\nTODO: Add EVENTS\n        EVENT 1] Mint(tokenId)\n        EVENT 2]\nTODO: Require a signed transaction from the \"to\" address before minting approval.\n */\n\ncontract AtlanticId is\n    Context,\n    AccessControlEnumerable,\n    ERC721Burnable,\n    ERC721Enumerable,\n    ERC721Pausable\n{\n    //** LIBRARIES */\n    using Counters for Counters.Counter;\n    using DateTime for DateTime._DateTime;\n    // using DateTime for *;\n\n    /** --- USER ROLES --- */\n    bytes32 public constant MINTER_ROLE   = keccak256(\"MINTER_ROLE\");\n    bytes32 public constant PAUSER_ROLE   = keccak256(\"PAUSER_ROLE\");\n    bytes32 public constant BURNER_ROLE   = keccak256(\"BURNER_ROLE\");\n    bytes32 public constant TRANSFER_ROLE = keccak256(\"TRANSFER_ROLE\");\n\n    /** LOCAL VARIABLES */\n    string private key;\n    address atlanticIdOwner;\n    Counters.Counter private _tokenIdTracker;   // Token Id Tracker\n    string private _baseTokenURI;               // This URI should point to the public JSON data of the user\n    struct AID {                                // (A)tlantic (Id)entification\n        string ens;                               //> | User's name\n        string uid;                               //> | User's Identification Number\n        string exchange;                          //> | Centralized Exchange where user's KYC info is registered\n        uint256 tokenId;                          //> | User's NFT token ID.\n        DateTime._DateTime expiry;                //> | Expiration date - period of valid ID\n    }\n    mapping(uint256 => AID) id_to_AID;          // TokenId mapped to User's Information\n    mapping(address => string) mint_key;        // Checks if address has an approved key.\n    mapping(address => bool) transfer_key;      // Checks if address has an approved key.\n    mapping(string => uint) _months;            // Mapping of months to numbers\n\n    /** EVENTS */\n    event Mint(uint256 tokenId, uint timestamp, uint256 yearExpired);\n\n\n    /** CONSTRUCTOR */\n    constructor() ERC721(\"AtlanticId\",\"AID\") {\n        atlanticIdOwner = _msgSender();\n        // --- SET ROLES ---\n        _setupRole(MINTER_ROLE, atlanticIdOwner);\n        _setupRole(PAUSER_ROLE, atlanticIdOwner);\n        _setupRole(BURNER_ROLE, atlanticIdOwner);\n        _setupRole(TRANSFER_ROLE, atlanticIdOwner);\n    }\n\n    // ===================================================\n    /** --- ERC-721 FUNCTIONS OVERRIDE & INITIALIZE --- */\n    // ===================================================\n    /**\n    FUNCTIONS\n    ---------\n        > _baseURI()\n        > supportsInterface()\n        > unpause()\n        > _beforeTokenTransfer()\n        > _beforeTokenTransfer()\n        > transferFrom()\n        > safeTransferFrom()\n    \n    TRANSFER FUNCTIONS\n    ------------------\n        > \n     */\n    function _baseURI() internal view virtual override returns (string memory) {\n        return _baseTokenURI;\n    }\n\n    /**\n     * @dev See {IERC165-supportsInterface}.\n     */\n    function supportsInterface(bytes4 interfaceId)\n        public\n        view\n        virtual\n        override(AccessControlEnumerable, ERC721, ERC721Enumerable)\n        returns (bool)\n    {\n        return super.supportsInterface(interfaceId);\n    }\n\n    /**\n     * @dev Unpauses all token transfers.\n     *\n     * See {ERC721Pausable} and {Pausable-_unpause}.\n     *\n     * Requirements:\n     *\n     * - the caller must have the `PAUSER_ROLE`.\n     */\n    function unpause() public virtual {\n        require(hasRole(PAUSER_ROLE, _msgSender()), \"ERC721PresetMinterPauserAutoId: must have pauser role to unpause\");\n        _unpause();\n    }\n\n    function _beforeTokenTransfer(\n        address from,\n        address to,\n        uint256 tokenId\n    ) internal virtual override(ERC721, ERC721Enumerable, ERC721Pausable) {\n        super._beforeTokenTransfer(from, to, tokenId);\n    }\n\n    function transferFrom(\n        address from,\n        address to,\n        uint256 tokenId\n    ) public override canTransfer(_msgSender())\n    {\n        _transfer(from, to, tokenId);\n        delete transfer_key[_msgSender()];\n    }\n\n    function safeTransferFrom(\n        address from,\n        address to,\n        uint256 tokenId,\n        bytes memory _data\n    ) public override canTransfer(_msgSender())\n    {\n        _safeTransfer(from, to, tokenId, _data);\n        delete transfer_key[_msgSender()];\n    }\n\n    // ==============================\n    /** ATLANTICID SPECIFIC FUNCTIONS */\n    /**\n    FUNCTIONS\n    ---------\n        > approveMint()\n        > approveTransfer()\n        > mint()\n     */\n\n    function approveMint(string memory _key, address to) public {\n        require(hasRole(MINTER_ROLE, _msgSender()), \"ERC721ApprovedMint: must have MINTER_ROLE or be owner to allow minting.\");\n        mint_key[to] = _key;\n    }\n\n    function getMintKey(address to) public view returns (string memory) {\n        require(_msgSender() == atlanticIdOwner, \"ERC721GetMintKey: must be the owner of the contract to retrieve mint key.\");\n        return mint_key[to];\n    }\n\n    function approveTransfer(address to) public {\n        require(hasRole(TRANSFER_ROLE, _msgSender()), \"ERC721ApprovedTransfer: must have TRANSFER_ROLE or be owner to allow transfer.\");\n        transfer_key[to] = true;\n    }\n\n    function getTransferKey(address from) public view returns (bool) {\n        require(_msgSender() == atlanticIdOwner, \"ERC721GetTransferKey: must be the owner of the contract to retrieve transfer key\");\n        return transfer_key[from];\n    }\n\n\n    /**\n     * @dev Unpauses all token transfers.\n     *\n     * See {ERC721Pausable} and {Pausable-_unpause}.\n     *\n     * Requirements:\n     *\n     * - the caller must have the `PAUSER_ROLE`.\n     *\n     *\n     * TODO: \n     *  - Add approved wallet access by contract owner.\n     */\n    function mint(\n        string memory _ens,\n        string memory _uid,\n        string memory _exchange,\n        string memory _key\n    ) public\n      hasKey(_msgSender(), _key)\n    {\n        /** FUNCTION VARIABLES */\n        uint _timestamp = block.timestamp;\n        // STEP 1: Require MINTER_ROLE & _key\n        // require(hasRole(MINTER_ROLE, _msgSender()), \"ERC721PresetMinterPauserAutoId: must have minter role to mint\");\n        uint256 _tokenId = _tokenIdTracker.current();\n\n        // STEP 2: Calculate the Expiration Date\n        // --- Calculate the Expiration Date ---\n        DateTime._DateTime memory _expiry = DateTime.parseTimestamp(_timestamp);\n        _expiry.year = _expiry.year + 1;\n\n        // STEP 3: Create Mapping\n        // --- Map the NFT IdNumber to the Data --- \n        id_to_AID[_tokenIdTracker.current()] = AID({\n            ens: _ens,\n            uid: _uid,\n            exchange: _exchange,\n            expiry: _expiry,\n            tokenId: _tokenId\n        });\n\n        // STEP 4: Mint NFID\n        _safeMint(_msgSender(), _tokenId);\n\n        // SETUP 5: Allow atlanticIdOwner to Manage NFT\n        approve(atlanticIdOwner, _tokenId);\n        emit Mint(_tokenId, _timestamp, _expiry.year);\n        _tokenIdTracker.increment();\n\n        // STEP 6: Delete _key\n        delete mint_key[_msgSender()];\n    }\n\n\n    /**\n        ==============================\n        |   NFID SPECIFIC FUNTIONS   |\n        ==============================\n        TODO: Add isValidAid()  - This function could use Chainlink (recommended) to bring in the current date, \n                                  or the function could take in what the current date it is (not recommended).\n        TODO: Add getUid()      - Returns AID user ID.\n        TODO: Add getEns()\n        TODO: Add getExchange()\n        TODO: Add getExpry()\n     */\n\n    function getUid(\n        uint256 _tokenId\n    ) public view\n      returns (string memory)\n    {\n        require(_exists(_tokenId),\"ERC721: tokenId does not exist.\");\n        return id_to_AID[_tokenId].uid;\n    }\n\n    function getEns(\n        uint256 _tokenId\n    ) public view \n      returns (string memory)\n    {\n        require(_exists(_tokenId),\"ERC721: tokenId does not exist.\");\n        require(keccak256(abi.encodePacked(_msgSender())) == keccak256(abi.encodePacked(atlanticIdOwner)),\"ERC721: \");\n        return id_to_AID[_tokenId].ens;\n    }\n\n    function getExchange(\n        uint256 _tokenId\n    ) public view\n      returns (string memory)\n    {\n        require(_exists(_tokenId),\"ERC721: tokenId does not exist.\");\n        return id_to_AID[_tokenId].exchange;\n    }\n\n    function getExpry(\n        uint256 _tokenId\n    ) public view\n      returns (uint8 day, uint8 month, uint16 year)\n    {\n        require(_exists(_tokenId),\"ERC721: tokenId does not exist.\");\n        AID memory user_aid = id_to_AID[_tokenId];\n        DateTime._DateTime memory user_date = user_aid.expiry;\n        return (user_date.day, user_date.month, user_date.year);\n    }\n\n    function isValidAid(\n        uint256 _tokenId\n    ) public view\n      returns (bool)\n    {\n        require(_exists(_tokenId),\"ERC721: tokenId does not exist.\");\n        uint16 now_year = DateTime.getYear(block.timestamp);\n        uint8 now_month = DateTime.getMonth(block.timestamp);\n        uint8 now_day = DateTime.getDay(block.timestamp);\n\n        AID memory user_aid = id_to_AID[_tokenId];\n        DateTime._DateTime memory user_date = user_aid.expiry;\n        uint16 id_year = user_date.year;\n        uint8 id_month = user_date.month;\n        uint8 id_day = user_date.day;\n\n        if (id_year < now_year) {\n            return true;\n        } else if (id_year > now_year) {\n            return false;\n        } else {\n            if (now_month < id_month) {\n                return true;\n            } else if (now_month > id_month) {\n                return false;\n            } else {\n                if (now_day < id_day) {\n                    return true;\n                } else {\n                    return false;\n                }\n            }\n        }\n    }\n\n    // function _transferExists(address from) internal view virtual returns (bool) {\n    //     return transfer_key[from] == true;\n    // }\n\n    // function _mintExists(address from) internal view virtual returns (bool) {\n    //     return mint_key[from] != \"\";\n    // }\n\n    /** MODIFIERS */\n    // keccak256(abi.encodePacked(a)\n    modifier hasKey(address _sender, string memory _key) {\n      if (keccak256(abi.encodePacked(mint_key[_sender])) == keccak256(abi.encodePacked(_key))) {\n         _;\n      } else {\n          revert(\"Account (msg.sender) must have an approved mint key.\");\n      }\n    }\n\n    modifier canTransfer(address _sender) {\n      if (transfer_key[_sender]) {\n         _;\n      } else {\n          revert(\"Account (msg.sender) must have an approved transfer key.\");\n      }\n    }\n\n}",
  "sourcePath": "/home/karl/Documents/SoftwareDevelopment/AtlanticLabs/AtlanticId/truffle/contracts/AtlanticId.sol",
  "compiler": {
    "name": "solc",
    "version": "0.8.11+commit.d7f03943.Emscripten.clang"
  },
  "schemaVersion": "3.4.3",
  "updatedAt": "2022-03-15T04:04:21.700Z",
  "networkType": "ethereum",
  "devdoc": {
    "kind": "dev",
    "methods": {
      "approve(address,uint256)": {
        "details": "See {IERC721-approve}."
      },
      "balanceOf(address)": {
        "details": "See {IERC721-balanceOf}."
      },
      "burn(uint256)": {
        "details": "Burns `tokenId`. See {ERC721-_burn}. Requirements: - The caller must own `tokenId` or be an approved operator."
      },
      "getApproved(uint256)": {
        "details": "See {IERC721-getApproved}."
      },
      "getRoleAdmin(bytes32)": {
        "details": "Returns the admin role that controls `role`. See {grantRole} and {revokeRole}. To change a role's admin, use {_setRoleAdmin}."
      },
      "getRoleMember(bytes32,uint256)": {
        "details": "Returns one of the accounts that have `role`. `index` must be a value between 0 and {getRoleMemberCount}, non-inclusive. Role bearers are not sorted in any particular way, and their ordering may change at any point. WARNING: When using {getRoleMember} and {getRoleMemberCount}, make sure you perform all queries on the same block. See the following https://forum.openzeppelin.com/t/iterating-over-elements-on-enumerableset-in-openzeppelin-contracts/2296[forum post] for more information."
      },
      "getRoleMemberCount(bytes32)": {
        "details": "Returns the number of accounts that have `role`. Can be used together with {getRoleMember} to enumerate all bearers of a role."
      },
      "grantRole(bytes32,address)": {
        "details": "Grants `role` to `account`. If `account` had not been already granted `role`, emits a {RoleGranted} event. Requirements: - the caller must have ``role``'s admin role."
      },
      "hasRole(bytes32,address)": {
        "details": "Returns `true` if `account` has been granted `role`."
      },
      "isApprovedForAll(address,address)": {
        "details": "See {IERC721-isApprovedForAll}."
      },
      "mint(string,string,string,string)": {
        "details": "Unpauses all token transfers. See {ERC721Pausable} and {Pausable-_unpause}. Requirements: - the caller must have the `PAUSER_ROLE`. TODO:   - Add approved wallet access by contract owner."
      },
      "name()": {
        "details": "See {IERC721Metadata-name}."
      },
      "ownerOf(uint256)": {
        "details": "See {IERC721-ownerOf}."
      },
      "paused()": {
        "details": "Returns true if the contract is paused, and false otherwise."
      },
      "renounceRole(bytes32,address)": {
        "details": "Revokes `role` from the calling account. Roles are often managed via {grantRole} and {revokeRole}: this function's purpose is to provide a mechanism for accounts to lose their privileges if they are compromised (such as when a trusted device is misplaced). If the calling account had been revoked `role`, emits a {RoleRevoked} event. Requirements: - the caller must be `account`."
      },
      "revokeRole(bytes32,address)": {
        "details": "Revokes `role` from `account`. If `account` had been granted `role`, emits a {RoleRevoked} event. Requirements: - the caller must have ``role``'s admin role."
      },
      "safeTransferFrom(address,address,uint256)": {
        "details": "See {IERC721-safeTransferFrom}."
      },
      "safeTransferFrom(address,address,uint256,bytes)": {
        "details": "See {IERC721-safeTransferFrom}."
      },
      "setApprovalForAll(address,bool)": {
        "details": "See {IERC721-setApprovalForAll}."
      },
      "supportsInterface(bytes4)": {
        "details": "See {IERC165-supportsInterface}."
      },
      "symbol()": {
        "details": "See {IERC721Metadata-symbol}."
      },
      "tokenByIndex(uint256)": {
        "details": "See {IERC721Enumerable-tokenByIndex}."
      },
      "tokenOfOwnerByIndex(address,uint256)": {
        "details": "See {IERC721Enumerable-tokenOfOwnerByIndex}."
      },
      "tokenURI(uint256)": {
        "details": "See {IERC721Metadata-tokenURI}."
      },
      "totalSupply()": {
        "details": "See {IERC721Enumerable-totalSupply}."
      },
      "transferFrom(address,address,uint256)": {
        "details": "See {IERC721-transferFrom}."
      },
      "unpause()": {
        "details": "Unpauses all token transfers. See {ERC721Pausable} and {Pausable-_unpause}. Requirements: - the caller must have the `PAUSER_ROLE`."
      }
    },
    "version": 1
  },
  "userdoc": {
    "events": {
      "Mint(uint256,uint256,uint256)": {
        "notice": "EVENTS "
      }
    },
    "kind": "user",
    "methods": {
      "MINTER_ROLE()": {
        "notice": "--- USER ROLES --- "
      },
      "approveMint(string,address)": {
        "notice": "FUNCTIONS --------- > approveMint() > approveTransfer() > mint()"
      },
      "constructor": {
        "notice": "CONSTRUCTOR "
      },
      "getUid(uint256)": {
        "notice": "============================== |   NFID SPECIFIC FUNTIONS   | ============================== TODO: Add isValidAid()  - This function could use Chainlink (recommended) to bring in the current date,  or the function could take in what the current date it is (not recommended). TODO: Add getUid()      - Returns AID user ID. TODO: Add getEns() TODO: Add getExchange() TODO: Add getExpry()"
      }
    },
    "notice": "TODO: Add EVENTS EVENT 1] Mint(tokenId) EVENT 2] TODO: Require a signed transaction from the \"to\" address before minting approval.",
    "version": 1
  }
}