{
  "contractName": "AtlanticId",
  "abi": [
    {
      "inputs": [],
      "stateMutability": "nonpayable",
      "type": "constructor"
    },
    {
      "anonymous": false,
      "inputs": [
        {
          "indexed": true,
          "internalType": "address",
          "name": "owner",
          "type": "address"
        },
        {
          "indexed": true,
          "internalType": "address",
          "name": "approved",
          "type": "address"
        },
        {
          "indexed": true,
          "internalType": "uint256",
          "name": "tokenId",
          "type": "uint256"
        }
      ],
      "name": "Approval",
      "type": "event"
    },
    {
      "anonymous": false,
      "inputs": [
        {
          "indexed": true,
          "internalType": "address",
          "name": "owner",
          "type": "address"
        },
        {
          "indexed": true,
          "internalType": "address",
          "name": "operator",
          "type": "address"
        },
        {
          "indexed": false,
          "internalType": "bool",
          "name": "approved",
          "type": "bool"
        }
      ],
      "name": "ApprovalForAll",
      "type": "event"
    },
    {
      "anonymous": false,
      "inputs": [
        {
          "indexed": false,
          "internalType": "uint256",
          "name": "tokenId",
          "type": "uint256"
        },
        {
          "indexed": false,
          "internalType": "uint256",
          "name": "timestamp",
          "type": "uint256"
        },
        {
          "indexed": false,
          "internalType": "uint256",
          "name": "yearExpired",
          "type": "uint256"
        }
      ],
      "name": "Mint",
      "type": "event"
    },
    {
      "anonymous": false,
      "inputs": [
        {
          "indexed": false,
          "internalType": "address",
          "name": "account",
          "type": "address"
        }
      ],
      "name": "Paused",
      "type": "event"
    },
    {
      "anonymous": false,
      "inputs": [
        {
          "indexed": true,
          "internalType": "bytes32",
          "name": "role",
          "type": "bytes32"
        },
        {
          "indexed": true,
          "internalType": "bytes32",
          "name": "previousAdminRole",
          "type": "bytes32"
        },
        {
          "indexed": true,
          "internalType": "bytes32",
          "name": "newAdminRole",
          "type": "bytes32"
        }
      ],
      "name": "RoleAdminChanged",
      "type": "event"
    },
    {
      "anonymous": false,
      "inputs": [
        {
          "indexed": true,
          "internalType": "bytes32",
          "name": "role",
          "type": "bytes32"
        },
        {
          "indexed": true,
          "internalType": "address",
          "name": "account",
          "type": "address"
        },
        {
          "indexed": true,
          "internalType": "address",
          "name": "sender",
          "type": "address"
        }
      ],
      "name": "RoleGranted",
      "type": "event"
    },
    {
      "anonymous": false,
      "inputs": [
        {
          "indexed": true,
          "internalType": "bytes32",
          "name": "role",
          "type": "bytes32"
        },
        {
          "indexed": true,
          "internalType": "address",
          "name": "account",
          "type": "address"
        },
        {
          "indexed": true,
          "internalType": "address",
          "name": "sender",
          "type": "address"
        }
      ],
      "name": "RoleRevoked",
      "type": "event"
    },
    {
      "anonymous": false,
      "inputs": [
        {
          "indexed": true,
          "internalType": "address",
          "name": "from",
          "type": "address"
        },
        {
          "indexed": true,
          "internalType": "address",
          "name": "to",
          "type": "address"
        },
        {
          "indexed": true,
          "internalType": "uint256",
          "name": "tokenId",
          "type": "uint256"
        }
      ],
      "name": "Transfer",
      "type": "event"
    },
    {
      "anonymous": false,
      "inputs": [
        {
          "indexed": false,
          "internalType": "address",
          "name": "account",
          "type": "address"
        }
      ],
      "name": "Unpaused",
      "type": "event"
    },
    {
      "inputs": [],
      "name": "ADMIN_ROLE",
      "outputs": [
        {
          "internalType": "bytes32",
          "name": "",
          "type": "bytes32"
        }
      ],
      "stateMutability": "view",
      "type": "function",
      "constant": true
    },
    {
      "inputs": [],
      "name": "BURNER_ROLE",
      "outputs": [
        {
          "internalType": "bytes32",
          "name": "",
          "type": "bytes32"
        }
      ],
      "stateMutability": "view",
      "type": "function",
      "constant": true
    },
    {
      "inputs": [],
      "name": "DEFAULT_ADMIN_ROLE",
      "outputs": [
        {
          "internalType": "bytes32",
          "name": "",
          "type": "bytes32"
        }
      ],
      "stateMutability": "view",
      "type": "function",
      "constant": true
    },
    {
      "inputs": [],
      "name": "MINTER_ROLE",
      "outputs": [
        {
          "internalType": "bytes32",
          "name": "",
          "type": "bytes32"
        }
      ],
      "stateMutability": "view",
      "type": "function",
      "constant": true
    },
    {
      "inputs": [],
      "name": "PAUSER_ROLE",
      "outputs": [
        {
          "internalType": "bytes32",
          "name": "",
          "type": "bytes32"
        }
      ],
      "stateMutability": "view",
      "type": "function",
      "constant": true
    },
    {
      "inputs": [],
      "name": "TRANSFER_ROLE",
      "outputs": [
        {
          "internalType": "bytes32",
          "name": "",
          "type": "bytes32"
        }
      ],
      "stateMutability": "view",
      "type": "function",
      "constant": true
    },
    {
      "inputs": [
        {
          "internalType": "address",
          "name": "to",
          "type": "address"
        },
        {
          "internalType": "uint256",
          "name": "tokenId",
          "type": "uint256"
        }
      ],
      "name": "approve",
      "outputs": [],
      "stateMutability": "nonpayable",
      "type": "function"
    },
    {
      "inputs": [
        {
          "internalType": "address",
          "name": "owner",
          "type": "address"
        }
      ],
      "name": "balanceOf",
      "outputs": [
        {
          "internalType": "uint256",
          "name": "",
          "type": "uint256"
        }
      ],
      "stateMutability": "view",
      "type": "function",
      "constant": true
    },
    {
      "inputs": [
        {
          "internalType": "uint256",
          "name": "tokenId",
          "type": "uint256"
        }
      ],
      "name": "burn",
      "outputs": [],
      "stateMutability": "nonpayable",
      "type": "function"
    },
    {
      "inputs": [
        {
          "internalType": "uint256",
          "name": "tokenId",
          "type": "uint256"
        }
      ],
      "name": "getApproved",
      "outputs": [
        {
          "internalType": "address",
          "name": "",
          "type": "address"
        }
      ],
      "stateMutability": "view",
      "type": "function",
      "constant": true
    },
    {
      "inputs": [
        {
          "internalType": "bytes32",
          "name": "role",
          "type": "bytes32"
        }
      ],
      "name": "getRoleAdmin",
      "outputs": [
        {
          "internalType": "bytes32",
          "name": "",
          "type": "bytes32"
        }
      ],
      "stateMutability": "view",
      "type": "function",
      "constant": true
    },
    {
      "inputs": [
        {
          "internalType": "bytes32",
          "name": "role",
          "type": "bytes32"
        },
        {
          "internalType": "address",
          "name": "account",
          "type": "address"
        }
      ],
      "name": "grantRole",
      "outputs": [],
      "stateMutability": "nonpayable",
      "type": "function"
    },
    {
      "inputs": [
        {
          "internalType": "bytes32",
          "name": "role",
          "type": "bytes32"
        },
        {
          "internalType": "address",
          "name": "account",
          "type": "address"
        }
      ],
      "name": "hasRole",
      "outputs": [
        {
          "internalType": "bool",
          "name": "",
          "type": "bool"
        }
      ],
      "stateMutability": "view",
      "type": "function",
      "constant": true
    },
    {
      "inputs": [
        {
          "internalType": "address",
          "name": "owner",
          "type": "address"
        },
        {
          "internalType": "address",
          "name": "operator",
          "type": "address"
        }
      ],
      "name": "isApprovedForAll",
      "outputs": [
        {
          "internalType": "bool",
          "name": "",
          "type": "bool"
        }
      ],
      "stateMutability": "view",
      "type": "function",
      "constant": true
    },
    {
      "inputs": [],
      "name": "name",
      "outputs": [
        {
          "internalType": "string",
          "name": "",
          "type": "string"
        }
      ],
      "stateMutability": "view",
      "type": "function",
      "constant": true
    },
    {
      "inputs": [
        {
          "internalType": "uint256",
          "name": "tokenId",
          "type": "uint256"
        }
      ],
      "name": "ownerOf",
      "outputs": [
        {
          "internalType": "address",
          "name": "",
          "type": "address"
        }
      ],
      "stateMutability": "view",
      "type": "function",
      "constant": true
    },
    {
      "inputs": [],
      "name": "paused",
      "outputs": [
        {
          "internalType": "bool",
          "name": "",
          "type": "bool"
        }
      ],
      "stateMutability": "view",
      "type": "function",
      "constant": true
    },
    {
      "inputs": [
        {
          "internalType": "bytes32",
          "name": "role",
          "type": "bytes32"
        },
        {
          "internalType": "address",
          "name": "account",
          "type": "address"
        }
      ],
      "name": "renounceRole",
      "outputs": [],
      "stateMutability": "nonpayable",
      "type": "function"
    },
    {
      "inputs": [
        {
          "internalType": "bytes32",
          "name": "role",
          "type": "bytes32"
        },
        {
          "internalType": "address",
          "name": "account",
          "type": "address"
        }
      ],
      "name": "revokeRole",
      "outputs": [],
      "stateMutability": "nonpayable",
      "type": "function"
    },
    {
      "inputs": [
        {
          "internalType": "address",
          "name": "operator",
          "type": "address"
        },
        {
          "internalType": "bool",
          "name": "approved",
          "type": "bool"
        }
      ],
      "name": "setApprovalForAll",
      "outputs": [],
      "stateMutability": "nonpayable",
      "type": "function"
    },
    {
      "inputs": [],
      "name": "symbol",
      "outputs": [
        {
          "internalType": "string",
          "name": "",
          "type": "string"
        }
      ],
      "stateMutability": "view",
      "type": "function",
      "constant": true
    },
    {
      "inputs": [
        {
          "internalType": "uint256",
          "name": "tokenId",
          "type": "uint256"
        }
      ],
      "name": "tokenURI",
      "outputs": [
        {
          "internalType": "string",
          "name": "",
          "type": "string"
        }
      ],
      "stateMutability": "view",
      "type": "function",
      "constant": true
    },
    {
      "inputs": [
        {
          "internalType": "bytes4",
          "name": "interfaceId",
          "type": "bytes4"
        }
      ],
      "name": "supportsInterface",
      "outputs": [
        {
          "internalType": "bool",
          "name": "",
          "type": "bool"
        }
      ],
      "stateMutability": "view",
      "type": "function",
      "constant": true
    },
    {
      "inputs": [],
      "name": "unpause",
      "outputs": [],
      "stateMutability": "nonpayable",
      "type": "function"
    },
    {
      "inputs": [
        {
          "internalType": "address",
          "name": "from",
          "type": "address"
        },
        {
          "internalType": "address",
          "name": "to",
          "type": "address"
        },
        {
          "internalType": "uint256",
          "name": "tokenId",
          "type": "uint256"
        }
      ],
      "name": "transferFrom",
      "outputs": [],
      "stateMutability": "nonpayable",
      "type": "function"
    },
    {
      "inputs": [
        {
          "internalType": "address",
          "name": "from",
          "type": "address"
        },
        {
          "internalType": "address",
          "name": "to",
          "type": "address"
        },
        {
          "internalType": "uint256",
          "name": "tokenId",
          "type": "uint256"
        }
      ],
      "name": "safeTransferFrom",
      "outputs": [],
      "stateMutability": "nonpayable",
      "type": "function"
    },
    {
      "inputs": [
        {
          "internalType": "address",
          "name": "from",
          "type": "address"
        },
        {
          "internalType": "address",
          "name": "to",
          "type": "address"
        },
        {
          "internalType": "uint256",
          "name": "tokenId",
          "type": "uint256"
        },
        {
          "internalType": "bytes",
          "name": "_data",
          "type": "bytes"
        }
      ],
      "name": "safeTransferFrom",
      "outputs": [],
      "stateMutability": "nonpayable",
      "type": "function"
    },
    {
      "inputs": [
        {
          "internalType": "string",
          "name": "_key",
          "type": "string"
        },
        {
          "internalType": "address",
          "name": "to",
          "type": "address"
        }
      ],
      "name": "approveMint",
      "outputs": [],
      "stateMutability": "nonpayable",
      "type": "function"
    },
    {
      "inputs": [
        {
          "internalType": "address",
          "name": "to",
          "type": "address"
        }
      ],
      "name": "getMintKey",
      "outputs": [
        {
          "internalType": "string",
          "name": "",
          "type": "string"
        }
      ],
      "stateMutability": "view",
      "type": "function",
      "constant": true
    },
    {
      "inputs": [
        {
          "internalType": "address",
          "name": "to",
          "type": "address"
        }
      ],
      "name": "approveTransfer",
      "outputs": [],
      "stateMutability": "nonpayable",
      "type": "function"
    },
    {
      "inputs": [
        {
          "internalType": "address",
          "name": "from",
          "type": "address"
        }
      ],
      "name": "getTransferKey",
      "outputs": [
        {
          "internalType": "bool",
          "name": "",
          "type": "bool"
        }
      ],
      "stateMutability": "view",
      "type": "function",
      "constant": true
    },
    {
      "inputs": [
        {
          "internalType": "string",
          "name": "_ens",
          "type": "string"
        },
        {
          "internalType": "string",
          "name": "_uid",
          "type": "string"
        },
        {
          "internalType": "string",
          "name": "_exchange",
          "type": "string"
        },
        {
          "internalType": "string",
          "name": "_key",
          "type": "string"
        }
      ],
      "name": "mint",
      "outputs": [],
      "stateMutability": "nonpayable",
      "type": "function"
    },
    {
      "inputs": [
        {
          "internalType": "uint256",
          "name": "_tokenId",
          "type": "uint256"
        }
      ],
      "name": "getUid",
      "outputs": [
        {
          "internalType": "string",
          "name": "",
          "type": "string"
        }
      ],
      "stateMutability": "view",
      "type": "function",
      "constant": true
    },
    {
      "inputs": [
        {
          "internalType": "uint256",
          "name": "_tokenId",
          "type": "uint256"
        }
      ],
      "name": "getEns",
      "outputs": [
        {
          "internalType": "string",
          "name": "",
          "type": "string"
        }
      ],
      "stateMutability": "view",
      "type": "function",
      "constant": true
    },
    {
      "inputs": [
        {
          "internalType": "uint256",
          "name": "_tokenId",
          "type": "uint256"
        }
      ],
      "name": "getExchange",
      "outputs": [
        {
          "internalType": "string",
          "name": "",
          "type": "string"
        }
      ],
      "stateMutability": "view",
      "type": "function",
      "constant": true
    },
    {
      "inputs": [
        {
          "internalType": "uint256",
          "name": "_tokenId",
          "type": "uint256"
        }
      ],
      "name": "getExpry",
      "outputs": [
        {
          "internalType": "uint8",
          "name": "day",
          "type": "uint8"
        },
        {
          "internalType": "uint8",
          "name": "month",
          "type": "uint8"
        },
        {
          "internalType": "uint16",
          "name": "year",
          "type": "uint16"
        }
      ],
      "stateMutability": "view",
      "type": "function",
      "constant": true
    },
    {
      "inputs": [
        {
          "internalType": "uint256",
          "name": "_tokenId",
          "type": "uint256"
        }
      ],
      "name": "isValidAid",
      "outputs": [
        {
          "internalType": "bool",
          "name": "",
          "type": "bool"
        }
      ],
      "stateMutability": "view",
      "type": "function",
      "constant": true
    }
  ],
  "bytecode": "0x60806040523480156200001157600080fd5b50604080518082018252600a81527f41746c616e74696349640000000000000000000000000000000000000000000060208083019182528351808501909452600384527f41494400000000000000000000000000000000000000000000000000000000009084015281519192916200008c9160019162000293565b508051620000a290600290602084019062000293565b50506007805460ff1916905550620000c5600033640100000000620001b1810204565b620000fa7f9f2df0fed2c77648de5860a4cc508cd0818c85b8b8a1ab4ceeef8d981c8956a633640100000000620001b1810204565b6200012f7f65d7a28e3265b37a6474929f336521b332c1681b933f6cb9f3376673440d862a33640100000000620001b1810204565b620001647f3c11d16cbaffd01df69ce1c404f6340ee057498f5f00246190ea54220576a84833640100000000620001b1810204565b620001997f8502233096d909befbda0999bb8ea2f3a6be3c138b9fbf003752a4c8bce86f6c33640100000000620001b1810204565b60098054600160a060020a031916331790556200038f565b620001c68282640100000000620001ca810204565b5050565b620001df828264010000000062000266810204565b620001c657600082815260208181526040808320600160a060020a03851684529091529020805460ff19166001179055620002226401000000006200028f810204565b600160a060020a031681600160a060020a0316837f2f8788117e7eff1d82e926ec794901d17c78024a50270940304540a733656f0d60405160405180910390a45050565b600091825260208281526040808420600160a060020a0393909316845291905290205460ff1690565b3390565b828054620002a19062000339565b90600052602060002090601f016020900481019282620002c5576000855562000310565b82601f10620002e057805160ff191683800117855562000310565b8280016001018555821562000310579182015b8281111562000310578251825591602001919060010190620002f3565b506200031e92915062000322565b5090565b5b808211156200031e576000815560010162000323565b6002810460018216806200034e57607f821691505b6020821081141562000389577f4e487b7100000000000000000000000000000000000000000000000000000000600052602260045260246000fd5b50919050565b613aad806200039f6000396000f3fe608060405234801561001057600080fd5b5060043610610244576000357c0100000000000000000000000000000000000000000000000000000000900480635c975abb1161014d578063a22cb465116100d5578063d547741f11610099578063d547741f14610543578063de9a62c814610556578063e63ab1e914610569578063e985e9c514610590578063eb03b578146105cc57600080fd5b8063a22cb465146104d0578063ac62b194146104e3578063b88d4fde146104f6578063c87b56dd14610509578063d53913931461051c57600080fd5b806375b238fc1161011c57806375b238fc1461047357806378b51d531461049a57806391d14854146104ad57806395d89b41146104c0578063a217fddf146104c857600080fd5b80635c975abb1461042f5780636352211e1461043a578063657d2adc1461044d57806370a082311461046057600080fd5b8063248a9ca3116101d057806336568abe1161019f57806336568abe146103db5780633f4ba83a146103ee57806342842e0e146103f657806342966c68146104095780634355b9d21461041c57600080fd5b8063248a9ca314610347578063282c51f31461036a5780632eeb78ce146103915780632f2ff15d146103c857600080fd5b8063090fdeb911610217578063090fdeb9146102c6578063095ea7b3146102d95780630b9d5847146102ec578063206b60f9146102ff57806323b872dd1461033457600080fd5b806301ffc9a71461024957806302341c711461027157806306fdde0314610286578063081812fc1461029b575b600080fd5b61025c610257366004613245565b6105df565b60405190151581526020015b60405180910390f35b61028461027f366004613311565b6105f0565b005b61028e610903565b6040516102689190613416565b6102ae6102a9366004613429565b610995565b604051600160a060020a039091168152602001610268565b61028e6102d436600461345e565b610a31565b6102846102e7366004613479565b610b8e565b61028e6102fa366004613429565b610cc6565b6103267f8502233096d909befbda0999bb8ea2f3a6be3c138b9fbf003752a4c8bce86f6c81565b604051908152602001610268565b6102846103423660046134a3565b610d0c565b610326610355366004613429565b60009081526020819052604090206001015490565b6103267f3c11d16cbaffd01df69ce1c404f6340ee057498f5f00246190ea54220576a84881565b6103a461039f366004613429565b610dc2565b6040805160ff948516815293909216602084015261ffff1690820152606001610268565b6102846103d63660046134df565b611064565b6102846103e93660046134df565b61108a565b610284611119565b6102846104043660046134a3565b6111c4565b610284610417366004613429565b6111df565b61028461042a36600461345e565b61126a565b60075460ff1661025c565b6102ae610448366004613429565b611353565b61025c61045b366004613429565b6113e1565b61032661046e36600461345e565b6118de565b6103267fa49807205ce4d355092ef5a8a18f56e8913cf4a201fbe287825b095693c2177581565b6102846104a836600461350b565b61197b565b61025c6104bb3660046134df565b611a69565b61028e611a92565b610326600081565b6102846104de366004613550565b611aa1565b61025c6104f136600461345e565b611aac565b61028461050436600461358c565b611b80565b61028e610517366004613429565b611bc2565b6103267f9f2df0fed2c77648de5860a4cc508cd0818c85b8b8a1ab4ceeef8d981c8956a681565b6102846105513660046134df565b611c9e565b61028e610564366004613429565b611cc4565b6103267f65d7a28e3265b37a6474929f336521b332c1681b933f6cb9f3376673440d862a81565b61025c61059e3660046135fc565b600160a060020a03918216600090815260066020908152604080832093909416825291909152205460ff1690565b61028e6105da366004613429565b611dd8565b60006105ea82611e1e565b92915050565b3381806040516020016106039190613626565b60408051601f198184030181528282528051602091820120600160a060020a0386166000908152600d835292909220919261063f929101613680565b60405160208183030381529060405280519060200120141561088557426000610667600a5490565b9050600061067483611e90565b8051909150610684906001613738565b61ffff1681526040805160a0810182528a8152602081018a90529081018890526060810183905260808101829052600c60006106bf600a5490565b81526020808201929092526040016000208251805191926106e592849290910190613160565b5060208281015180516106fe9260018501920190613160565b506040820151805161071a916002840191602090910190613160565b50606082810151600383015560809283015180516004909301805460208301516040840151948401519684015160a085015160c09095015161ffff90971662ffffff19909316929092176201000060ff928316021764ffff000000191663010000009582169590950264ff00000000191694909417640100000000968516969096029590951766ffff00000000001916650100000000009584169590950266ff0000000000001916949094176601000000000000918316919091021767ff00000000000000191667010000000000000091909216021790556107fc3383612078565b60095461081290600160a060020a031683610b8e565b8051604080518481526020810186905261ffff90921682820152517f070aa035fe0a09f0d9305bdc2d7a5d93cd4733db3b1ff869b4a7033c9501909a9181900360600190a1610865600a80546001019055565b336000908152600d6020526040812061087d916131e4565b5050506108fb565b60405160e560020a62461bcd02815260206004820152603460248201527f4163636f756e7420286d73672e73656e64657229206d7573742068617665206160448201527f6e20617070726f766564206d696e74206b65792e00000000000000000000000060648201526084015b60405180910390fd5b505050505050565b60606001805461091290613642565b80601f016020809104026020016040519081016040528092919081815260200182805461093e90613642565b801561098b5780601f106109605761010080835404028352916020019161098b565b820191906000526020600020905b81548152906001019060200180831161096e57829003601f168201915b5050505050905090565b60006109a082612092565b610a155760405160e560020a62461bcd02815260206004820152602c60248201527f4552433732313a20617070726f76656420717565727920666f72206e6f6e657860448201527f697374656e7420746f6b656e000000000000000000000000000000000000000060648201526084016108f2565b50600090815260056020526040902054600160a060020a031690565b600954606090600160a060020a031633600160a060020a031614610ae65760405160e560020a62461bcd02815260206004820152604960248201527f4552433732314765744d696e744b65793a206d75737420626520746865206f7760448201527f6e6572206f662074686520636f6e747261637420746f2072657472696576652060648201527f6d696e74206b65792e0000000000000000000000000000000000000000000000608482015260a4016108f2565b600160a060020a0382166000908152600d602052604090208054610b0990613642565b80601f0160208091040260200160405190810160405280929190818152602001828054610b3590613642565b8015610b825780601f10610b5757610100808354040283529160200191610b82565b820191906000526020600020905b815481529060010190602001808311610b6557829003601f168201915b50505050509050919050565b6000610b9982611353565b905080600160a060020a031683600160a060020a03161415610c265760405160e560020a62461bcd02815260206004820152602160248201527f4552433732313a20617070726f76616c20746f2063757272656e74206f776e6560448201527f720000000000000000000000000000000000000000000000000000000000000060648201526084016108f2565b33600160a060020a0382161480610c425750610c42813361059e565b610cb75760405160e560020a62461bcd02815260206004820152603860248201527f4552433732313a20617070726f76652063616c6c6572206973206e6f74206f7760448201527f6e6572206e6f7220617070726f76656420666f7220616c6c000000000000000060648201526084016108f2565b610cc183836120af565b505050565b6060610cd182612092565b610cf05760405160e560020a62461bcd0281526004016108f29061375e565b6000828152600c602052604090206002018054610b0990613642565b336000818152600e602052604090205460ff1615610d4b57610d2f84848461212a565b336000908152600e60205260409020805460ff19169055610dbc565b60405160e560020a62461bcd02815260206004820152603860248201527f4163636f756e7420286d73672e73656e64657229206d7573742068617665206160448201527f6e20617070726f766564207472616e73666572206b65792e000000000000000060648201526084016108f2565b50505050565b6000806000610dd084612092565b610def5760405160e560020a62461bcd0281526004016108f29061375e565b6000848152600c6020526040808220815160a08101909252805482908290610e1690613642565b80601f0160208091040260200160405190810160405280929190818152602001828054610e4290613642565b8015610e8f5780601f10610e6457610100808354040283529160200191610e8f565b820191906000526020600020905b815481529060010190602001808311610e7257829003601f168201915b50505050508152602001600182018054610ea890613642565b80601f0160208091040260200160405190810160405280929190818152602001828054610ed490613642565b8015610f215780601f10610ef657610100808354040283529160200191610f21565b820191906000526020600020905b815481529060010190602001808311610f0457829003601f168201915b50505050508152602001600282018054610f3a90613642565b80601f0160208091040260200160405190810160405280929190818152602001828054610f6690613642565b8015610fb35780601f10610f8857610100808354040283529160200191610fb3565b820191906000526020600020905b815481529060010190602001808311610f9657829003601f168201915b505050918352505060038201546020808301919091526040805160e08101825260049094015461ffff8116855260ff62010000820481168685015263010000008204811686840152640100000000820481166060870152650100000000008204811660808088019190915266010000000000008304821660a08801526701000000000000009092041660c0860152928101939093529201519081015191810151905191955093509150509193909250565b6000828152602081905260409020600101546110808133612315565b610cc1838361237c565b600160a060020a038116331461110b5760405160e560020a62461bcd02815260206004820152602f60248201527f416363657373436f6e74726f6c3a2063616e206f6e6c792072656e6f756e636560448201527f20726f6c657320666f722073656c66000000000000000000000000000000000060648201526084016108f2565b6111158282612400565b5050565b6111437f65d7a28e3265b37a6474929f336521b332c1681b933f6cb9f3376673440d862a33611a69565b6111ba576040805160e560020a62461bcd0281526020600482015260248101919091527f4552433732315072657365744d696e7465725061757365724175746f49643a2060448201527f6d75737420686176652070617573657220726f6c6520746f20756e706175736560648201526084016108f2565b6111c2612465565b565b610cc183838360405180602001604052806000815250611b80565b6111e933826124f9565b61125e5760405160e560020a62461bcd02815260206004820152603060248201527f4552433732314275726e61626c653a2063616c6c6572206973206e6f74206f7760448201527f6e6572206e6f7220617070726f7665640000000000000000000000000000000060648201526084016108f2565b611267816125f7565b50565b6112947f8502233096d909befbda0999bb8ea2f3a6be3c138b9fbf003752a4c8bce86f6c33611a69565b61132f5760405160e560020a62461bcd02815260206004820152604e60248201527f455243373231417070726f7665645472616e736665723a206d7573742068617660448201527f65205452414e534645525f524f4c45206f72206265206f776e657220746f206160648201527f6c6c6f77207472616e736665722e000000000000000000000000000000000000608482015260a4016108f2565b600160a060020a03166000908152600e60205260409020805460ff19166001179055565b600081815260036020526040812054600160a060020a0316806105ea5760405160e560020a62461bcd02815260206004820152602960248201527f4552433732313a206f776e657220717565727920666f72206e6f6e657869737460448201527f656e7420746f6b656e000000000000000000000000000000000000000000000060648201526084016108f2565b60006113ec82612092565b61140b5760405160e560020a62461bcd0281526004016108f29061375e565b6040517f92d6631300000000000000000000000000000000000000000000000000000000815242600482015260009073__DateTime______________________________906392d6631390602401602060405180830381865af4158015611476573d6000803e3d6000fd5b505050506040513d601f19601f8201168201806040525081019061149a9190613795565b6040517fa324ad2400000000000000000000000000000000000000000000000000000000815242600482015290915060009073__DateTime______________________________9063a324ad2490602401602060405180830381865af4158015611508573d6000803e3d6000fd5b505050506040513d601f19601f8201168201806040525081019061152c91906137b9565b6040517f65c7284000000000000000000000000000000000000000000000000000000000815242600482015290915060009073__DateTime______________________________906365c7284090602401602060405180830381865af415801561159a573d6000803e3d6000fd5b505050506040513d601f19601f820116820180604052508101906115be91906137b9565b90506000600c60008781526020019081526020016000206040518060a00160405290816000820180546115f090613642565b80601f016020809104026020016040519081016040528092919081815260200182805461161c90613642565b80156116695780601f1061163e57610100808354040283529160200191611669565b820191906000526020600020905b81548152906001019060200180831161164c57829003601f168201915b5050505050815260200160018201805461168290613642565b80601f01602080910402602001604051908101604052809291908181526020018280546116ae90613642565b80156116fb5780601f106116d0576101008083540402835291602001916116fb565b820191906000526020600020905b8154815290600101906020018083116116de57829003601f168201915b5050505050815260200160028201805461171490613642565b80601f016020809104026020016040519081016040528092919081815260200182805461174090613642565b801561178d5780601f106117625761010080835404028352916020019161178d565b820191906000526020600020905b81548152906001019060200180831161177057829003601f168201915b505050918352505060038201546020808301919091526040805160e08101825260049094015461ffff808216865260ff62010000830481168786015263010000008304811687850152640100000000830481166060880152650100000000008304811660808089019190915266010000000000008404821660a08901526701000000000000009093041660c0870152938201949094529284015180519181015193810151949550939092918881169084161015611854575060019998505050505050505050565b8761ffff168361ffff161115611874575060009998505050505050505050565b8160ff168760ff161015611892575060019998505050505050505050565b8160ff168760ff1611156118b0575060009998505050505050505050565b8060ff168660ff1610156118ce575060019998505050505050505050565b5060009998505050505050505050565b6000600160a060020a03821661195f5760405160e560020a62461bcd02815260206004820152602a60248201527f4552433732313a2062616c616e636520717565727920666f7220746865207a6560448201527f726f20616464726573730000000000000000000000000000000000000000000060648201526084016108f2565b50600160a060020a031660009081526004602052604090205490565b6119a57f9f2df0fed2c77648de5860a4cc508cd0818c85b8b8a1ab4ceeef8d981c8956a633611a69565b611a405760405160e560020a62461bcd02815260206004820152604760248201527f455243373231417070726f7665644d696e743a206d7573742068617665204d4960448201527f4e5445525f524f4c45206f72206265206f776e657220746f20616c6c6f77206d60648201527f696e74696e672e00000000000000000000000000000000000000000000000000608482015260a4016108f2565b600160a060020a0381166000908152600d602090815260409091208351610cc192850190613160565b600091825260208281526040808420600160a060020a0393909316845291905290205460ff1690565b60606002805461091290613642565b6111153383836126ab565b600954600090600160a060020a031633600160a060020a031614611b615760405160e560020a62461bcd02815260206004820152605060248201527f4552433732314765745472616e736665724b65793a206d75737420626520746860448201527f65206f776e6572206f662074686520636f6e747261637420746f20726574726960648201527f657665207472616e73666572206b657900000000000000000000000000000000608482015260a4016108f2565b50600160a060020a03166000908152600e602052604090205460ff1690565b336000818152600e602052604090205460ff1615610d4b57611ba48585858561277d565b5050336000908152600e60205260409020805460ff19169055505050565b6060611bcd82612092565b611c425760405160e560020a62461bcd02815260206004820152602f60248201527f4552433732314d657461646174613a2055524920717565727920666f72206e6f60448201527f6e6578697374656e7420746f6b656e000000000000000000000000000000000060648201526084016108f2565b6000611c4c6127b3565b90506000815111611c6c5760405180602001604052806000815250611c97565b80611c76846127c2565b604051602001611c879291906137dc565b6040516020818303038152906040525b9392505050565b600082815260208190526040902060010154611cba8133612315565b610cc18383612400565b6060611ccf82612092565b611cee5760405160e560020a62461bcd0281526004016108f29061375e565b600954604051600160a060020a039091166c0100000000000000000000000002602082015260340160405160208183030381529060405280519060200120611d333390565b604051600160a060020a03919091166c010000000000000000000000000260208201526034016040516020818303038152906040528051906020012014611dbf5760405160e560020a62461bcd02815260206004820152600860248201527f4552433732313a2000000000000000000000000000000000000000000000000060448201526064016108f2565b6000828152600c602052604090208054610b0990613642565b6060611de382612092565b611e025760405160e560020a62461bcd0281526004016108f29061375e565b6000828152600c602052604090206001018054610b0990613642565b6000600160e060020a031982167f80ac58cd000000000000000000000000000000000000000000000000000000001480611e815750600160e060020a031982167f5b5e139f00000000000000000000000000000000000000000000000000000000145b806105ea57506105ea826128fb565b6040805160e081018252600080825260208201819052918101829052606081018290526080810182905260a0810182905260c08101829052908080611ed485612962565b61ffff168452611ee56107b2612a57565b8451611ef49061ffff16612a57565b611efe9190613802565b9150611f0e826301e28500613819565b611f189084613838565b9250816107b28560000151611f2d9190613850565b61ffff16611f3b9190613802565b611f49906301e13380613819565b611f539084613838565b92506000600191505b600c8260ff1611611fc457611f75828660000151612a9c565b611f859060ff1662015180613819565b905085611f928583613838565b1115611fa65760ff82166020860152611fc4565b611fb08185613838565b935081611fbc81613873565b925050611f5c565b600191505b611fdb85602001518660000151612a9c565b60ff168260ff161161202a5785611ff58562015180613838565b11156120095760ff8216604086015261202a565b6120166201518085613838565b93508161202281613873565b925050611fc9565b61203386612b62565b60ff16606086015261204486612b86565b60ff16608086015261205586612b94565b60ff1660a086015261206686612ba1565b60ff1660c08601525092949350505050565b611115828260405180602001604052806000815250612bbd565b600090815260036020526040902054600160a060020a0316151590565b6000818152600560205260409020805473ffffffffffffffffffffffffffffffffffffffff1916600160a060020a03841690811790915581906120f182611353565b600160a060020a03167f8c5be1e5ebec7d5bd14f71427d1e84f3dd0314c0f7b2291e5b200ac8c7c3b92560405160405180910390a45050565b82600160a060020a031661213d82611353565b600160a060020a0316146121bc5760405160e560020a62461bcd02815260206004820152602560248201527f4552433732313a207472616e736665722066726f6d20696e636f72726563742060448201527f6f776e657200000000000000000000000000000000000000000000000000000060648201526084016108f2565b600160a060020a03821661223a5760405160e560020a62461bcd028152602060048201526024808201527f4552433732313a207472616e7366657220746f20746865207a65726f2061646460448201527f726573730000000000000000000000000000000000000000000000000000000060648201526084016108f2565b612245838383612bf3565b6122506000826120af565b600160a060020a0383166000908152600460205260408120805460019290612279908490613802565b9091555050600160a060020a03821660009081526004602052604081208054600192906122a7908490613838565b9091555050600081815260036020526040808220805473ffffffffffffffffffffffffffffffffffffffff1916600160a060020a0386811691821790925591518493918716917fddf252ad1be2c89b69c2b068fc378daa952ba7f163c4a11628f55a4df523b3ef91a4505050565b61231f8282611a69565b6111155761233781600160a060020a03166014612bfe565b612342836020612bfe565b604051602001612353929190613893565b60408051601f198184030181529082905260e560020a62461bcd0282526108f291600401613416565b6123868282611a69565b61111557600082815260208181526040808320600160a060020a03851684529091529020805460ff191660011790556123bc3390565b600160a060020a031681600160a060020a0316837f2f8788117e7eff1d82e926ec794901d17c78024a50270940304540a733656f0d60405160405180910390a45050565b61240a8282611a69565b1561111557600082815260208181526040808320600160a060020a0385168085529252808320805460ff1916905551339285917ff6391f5c32d9c69d2a47ea670b442974b53935d1edc7fd64eb21e047a839171b9190a45050565b60075460ff166124ba5760405160e560020a62461bcd02815260206004820152601460248201527f5061757361626c653a206e6f742070617573656400000000000000000000000060448201526064016108f2565b6007805460ff191690556040805133815290517f5db9ee0a495bf2e6ff9c91a7834c1ba4fdd244a5e8aa4e537bd38aeae4b073aa9181900360200190a1565b600061250482612092565b6125795760405160e560020a62461bcd02815260206004820152602c60248201527f4552433732313a206f70657261746f7220717565727920666f72206e6f6e657860448201527f697374656e7420746f6b656e000000000000000000000000000000000000000060648201526084016108f2565b600061258483611353565b905080600160a060020a031684600160a060020a031614806125bf575083600160a060020a03166125b484610995565b600160a060020a0316145b806125ef5750600160a060020a0380821660009081526006602090815260408083209388168352929052205460ff165b949350505050565b600061260282611353565b905061261081600084612bf3565b61261b6000836120af565b600160a060020a0381166000908152600460205260408120805460019290612644908490613802565b9091555050600082815260036020526040808220805473ffffffffffffffffffffffffffffffffffffffff1916905551839190600160a060020a038416907fddf252ad1be2c89b69c2b068fc378daa952ba7f163c4a11628f55a4df523b3ef908390a45050565b81600160a060020a031683600160a060020a031614156127105760405160e560020a62461bcd02815260206004820152601960248201527f4552433732313a20617070726f766520746f2063616c6c65720000000000000060448201526064016108f2565b600160a060020a03838116600081815260066020908152604080832094871680845294825291829020805460ff191686151590811790915591519182527f17307eab39ab6107e8899845ad3d59bd9653f200f220920489ca2b5937696c31910160405180910390a3505050565b61278884848461212a565b61279484848484612e00565b610dbc5760405160e560020a62461bcd0281526004016108f290613914565b6060600b805461091290613642565b60608161280257505060408051808201909152600181527f3000000000000000000000000000000000000000000000000000000000000000602082015290565b8160005b811561282c578061281681613971565b91506128259050600a836139a5565b9150612806565b60008167ffffffffffffffff81111561284757612847613262565b6040519080825280601f01601f191660200182016040528015612871576020820181803683370190505b5090505b84156125ef57612886600183613802565b9150612893600a866139b9565b61289e906030613838565b7f0100000000000000000000000000000000000000000000000000000000000000028183815181106128d2576128d26139cd565b6020010190600160f860020a031916908160001a9053506128f4600a866139a5565b9450612875565b6000600160e060020a031982167f7965db0b0000000000000000000000000000000000000000000000000000000014806105ea57507f01ffc9a700000000000000000000000000000000000000000000000000000000600160e060020a03198316146105ea565b60008080806129756301e13380866139a5565b612981906107b2613838565b915061298e6107b2612a57565b61299b8361ffff16612a57565b6129a59190613802565b90506129b5816301e28500613819565b6129bf9084613838565b9250806129ce6107b284613850565b61ffff166129dc9190613802565b6129ea906301e13380613819565b6129f49084613838565b92505b84831115612a4f57612a12612a0d600184613850565b612f33565b15612a2c57612a256301e2850084613802565b9250612a3d565b612a3a6301e1338084613802565b92505b612a48600183613850565b91506129f7565b509392505050565b6000612a64600183613802565b9150612a72610190836139a5565b612a7d6064846139a5565b612a886004856139a5565b612a929190613802565b6105ea9190613838565b60008260ff1660011480612ab357508260ff166003145b80612ac157508260ff166005145b80612acf57508260ff166007145b80612add57508260ff166008145b80612aeb57508260ff16600a145b80612af957508260ff16600c145b15612b065750601f6105ea565b8260ff1660041480612b1b57508260ff166006145b80612b2957508260ff166009145b80612b3757508260ff16600b145b15612b445750601e6105ea565b612b4d82612f33565b15612b5a5750601d6105ea565b50601c6105ea565b60006018603c612b7281856139a5565b612b7c91906139a5565b6105ea91906139b9565b6000603c612b7c81846139a5565b60006105ea603c836139b9565b60006007612bb262015180846139a5565b612b7c906004613838565b612bc78383612f92565b612bd46000848484612e00565b610cc15760405160e560020a62461bcd0281526004016108f290613914565b610cc18383836130e4565b60606000612c0d836002613819565b612c18906002613838565b67ffffffffffffffff811115612c3057612c30613262565b6040519080825280601f01601f191660200182016040528015612c5a576020820181803683370190505b5090507f300000000000000000000000000000000000000000000000000000000000000081600081518110612c9157612c916139cd565b6020010190600160f860020a031916908160001a9053507f780000000000000000000000000000000000000000000000000000000000000081600181518110612cdc57612cdc6139cd565b6020010190600160f860020a031916908160001a9053506000612d00846002613819565b612d0b906001613838565b90505b6001811115612dae577f303132333435363738396162636465660000000000000000000000000000000085600f1660108110612d4c57612d4c6139cd565b1a7f010000000000000000000000000000000000000000000000000000000000000002828281518110612d8157612d816139cd565b6020010190600160f860020a031916908160001a905350601090940493612da7816139e6565b9050612d0e565b508315611c975760405160e560020a62461bcd02815260206004820181905260248201527f537472696e67733a20686578206c656e67746820696e73756666696369656e7460448201526064016108f2565b6000600160a060020a0384163b15612f28576040517f150b7a02000000000000000000000000000000000000000000000000000000008152600160a060020a0385169063150b7a0290612e5d9033908990889088906004016139fd565b6020604051808303816000875af1925050508015612e98575060408051601f3d908101601f19168201909252612e9591810190613a39565b60015b612ef5573d808015612ec6576040519150601f19603f3d011682016040523d82523d6000602084013e612ecb565b606091505b508051612eed5760405160e560020a62461bcd0281526004016108f290613914565b805181602001fd5b600160e060020a0319167f150b7a02000000000000000000000000000000000000000000000000000000001490506125ef565b506001949350505050565b6000612f40600483613a56565b61ffff1615612f5157506000919050565b612f5c606483613a56565b61ffff1615612f6d57506001919050565b612f7961019083613a56565b61ffff1615612f8a57506000919050565b506001919050565b600160a060020a038216612feb5760405160e560020a62461bcd02815260206004820181905260248201527f4552433732313a206d696e7420746f20746865207a65726f206164647265737360448201526064016108f2565b612ff481612092565b156130445760405160e560020a62461bcd02815260206004820152601c60248201527f4552433732313a20746f6b656e20616c7265616479206d696e7465640000000060448201526064016108f2565b61305060008383612bf3565b600160a060020a0382166000908152600460205260408120805460019290613079908490613838565b9091555050600081815260036020526040808220805473ffffffffffffffffffffffffffffffffffffffff1916600160a060020a03861690811790915590518392907fddf252ad1be2c89b69c2b068fc378daa952ba7f163c4a11628f55a4df523b3ef908290a45050565b60075460ff1615610cc15760405160e560020a62461bcd02815260206004820152602b60248201527f4552433732315061757361626c653a20746f6b656e207472616e73666572207760448201527f68696c652070617573656400000000000000000000000000000000000000000060648201526084016108f2565b82805461316c90613642565b90600052602060002090601f01602090048101928261318e57600085556131d4565b82601f106131a757805160ff19168380011785556131d4565b828001600101855582156131d4579182015b828111156131d45782518255916020019190600101906131b9565b506131e092915061321a565b5090565b5080546131f090613642565b6000825580601f10613200575050565b601f01602090049060005260206000209081019061126791905b5b808211156131e0576000815560010161321b565b600160e060020a03198116811461126757600080fd5b60006020828403121561325757600080fd5b8135611c978161322f565b60e060020a634e487b7102600052604160045260246000fd5b600067ffffffffffffffff8084111561329657613296613262565b604051601f8501601f19908116603f011681019082821181831017156132be576132be613262565b816040528093508581528686860111156132d757600080fd5b858560208301376000602087830101525050509392505050565b600082601f83011261330257600080fd5b611c978383356020850161327b565b6000806000806080858703121561332757600080fd5b843567ffffffffffffffff8082111561333f57600080fd5b61334b888389016132f1565b9550602087013591508082111561336157600080fd5b61336d888389016132f1565b9450604087013591508082111561338357600080fd5b61338f888389016132f1565b935060608701359150808211156133a557600080fd5b506133b2878288016132f1565b91505092959194509250565b60005b838110156133d95781810151838201526020016133c1565b83811115610dbc5750506000910152565b600081518084526134028160208601602086016133be565b601f01601f19169290920160200192915050565b602081526000611c9760208301846133ea565b60006020828403121561343b57600080fd5b5035919050565b8035600160a060020a038116811461345957600080fd5b919050565b60006020828403121561347057600080fd5b611c9782613442565b6000806040838503121561348c57600080fd5b61349583613442565b946020939093013593505050565b6000806000606084860312156134b857600080fd5b6134c184613442565b92506134cf60208501613442565b9150604084013590509250925092565b600080604083850312156134f257600080fd5b8235915061350260208401613442565b90509250929050565b6000806040838503121561351e57600080fd5b823567ffffffffffffffff81111561353557600080fd5b613541858286016132f1565b92505061350260208401613442565b6000806040838503121561356357600080fd5b61356c83613442565b91506020830135801515811461358157600080fd5b809150509250929050565b600080600080608085870312156135a257600080fd5b6135ab85613442565b93506135b960208601613442565b925060408501359150606085013567ffffffffffffffff8111156135dc57600080fd5b8501601f810187136135ed57600080fd5b6133b28782356020840161327b565b6000806040838503121561360f57600080fd5b61361883613442565b915061350260208401613442565b600082516136388184602087016133be565b9190910192915050565b60028104600182168061365657607f821691505b6020821081141561367a5760e060020a634e487b7102600052602260045260246000fd5b50919050565b815460009081906002810460018083168061369c57607f831692505b60208084108214156136bf5760e060020a634e487b710286526022600452602486fd5b8180156136d357600181146136e457613711565b60ff19861689528489019650613711565b60008a81526020902060005b868110156137095781548b8201529085019083016136f0565b505084890196505b509498975050505050505050565b60e060020a634e487b7102600052601160045260246000fd5b600061ffff8083168185168083038211156137555761375561371f565b01949350505050565b6020808252601f908201527f4552433732313a20746f6b656e496420646f6573206e6f742065786973742e00604082015260600190565b6000602082840312156137a757600080fd5b815161ffff81168114611c9757600080fd5b6000602082840312156137cb57600080fd5b815160ff81168114611c9757600080fd5b600083516137ee8184602088016133be565b8351908301906137558183602088016133be565b6000828210156138145761381461371f565b500390565b60008160001904831182151516156138335761383361371f565b500290565b6000821982111561384b5761384b61371f565b500190565b600061ffff8381169083168181101561386b5761386b61371f565b039392505050565b600060ff821660ff81141561388a5761388a61371f565b60010192915050565b7f416363657373436f6e74726f6c3a206163636f756e74200000000000000000008152600083516138cb8160178501602088016133be565b7f206973206d697373696e6720726f6c652000000000000000000000000000000060179184019182015283516139088160288401602088016133be565b01602801949350505050565b60208082526032908201527f4552433732313a207472616e7366657220746f206e6f6e20455243373231526560408201527f63656976657220696d706c656d656e7465720000000000000000000000000000606082015260800190565b60006000198214156139855761398561371f565b5060010190565b60e060020a634e487b7102600052601260045260246000fd5b6000826139b4576139b461398c565b500490565b6000826139c8576139c861398c565b500690565b60e060020a634e487b7102600052603260045260246000fd5b6000816139f5576139f561371f565b506000190190565b6000600160a060020a03808716835280861660208401525083604083015260806060830152613a2f60808301846133ea565b9695505050505050565b600060208284031215613a4b57600080fd5b8151611c978161322f565b600061ffff80841680613a6b57613a6b61398c565b9216919091069291505056fea2646970667358221220962d24c6383738fc54652583582d89fb7a78380a86d7c4010fac1735a574fdbc64736f6c634300080b0033",
  "immutableReferences": {},
  "source": "// SPDX-License-Identifier: MIT\npragma solidity ^0.8.0;\n\nimport \"../node_modules/@openzeppelin/contracts/token/ERC721/ERC721.sol\";\nimport \"../node_modules/@openzeppelin/contracts/token/ERC721/extensions/ERC721Burnable.sol\";\nimport \"../node_modules/@openzeppelin/contracts/token/ERC721/extensions/ERC721Pausable.sol\";\nimport \"../node_modules/@openzeppelin/contracts/access/AccessControl.sol\";\nimport \"../node_modules/@openzeppelin/contracts/utils/Context.sol\";\nimport \"../node_modules/@openzeppelin/contracts/utils/Counters.sol\";\nimport \"./DateTime.sol\";\n\n/**\nTODO: Add EVENTS\n        EVENT 1] Mint(tokenId)\n        EVENT 2]\nTODO: Require a signed transaction from the \"to\" address before minting approval.\n */\n\ncontract AtlanticId is\n    Context,\n    AccessControl,\n    ERC721Burnable,\n    ERC721Pausable\n{\n    //** LIBRARIES */\n    using Counters for Counters.Counter;\n    using DateTime for DateTime._DateTime;\n    // using DateTime for *;\n\n    /** --- USER ROLES --- */\n    bytes32 public constant ADMIN_ROLE    = keccak256(\"ADMIN_ROLE\");\n    bytes32 public constant MINTER_ROLE   = keccak256(\"MINTER_ROLE\");\n    bytes32 public constant PAUSER_ROLE   = keccak256(\"PAUSER_ROLE\");\n    bytes32 public constant BURNER_ROLE   = keccak256(\"BURNER_ROLE\");\n    bytes32 public constant TRANSFER_ROLE = keccak256(\"TRANSFER_ROLE\");\n\n    /** LOCAL VARIABLES */\n    string private key;\n    address atlanticIdOwner;\n    Counters.Counter private _tokenIdTracker;   // Token Id Tracker\n    string private _baseTokenURI;               // This URI should point to the public JSON data of the user\n    struct AID {                                // (A)tlantic (Id)entification\n        string ens;                               //> | User's name\n        string uid;                               //> | User's Identification Number\n        string exchange;                          //> | Centralized Exchange where user's KYC info is registered\n        uint256 tokenId;                          //> | User's NFT token ID.\n        DateTime._DateTime expiry;                //> | Expiration date - period of valid ID\n    }\n    mapping(uint256 => AID) id_to_AID;          // TokenId mapped to User's Information\n    mapping(address => string) mint_key;        // Checks if address has an approved key.\n    mapping(address => bool) transfer_key;      // Checks if address has an approved key.\n    mapping(string => uint) _months;            // Mapping of months to numbers\n\n    /** EVENTS */\n    event Mint(uint256 tokenId, uint timestamp, uint256 yearExpired);\n\n\n    /** CONSTRUCTOR */\n    constructor() ERC721(\"AtlanticId\",\"AID\") {\n        // atlanticIdOwner = _msgSender();\n        // --- SET ROLES ---\n        _setupRole(DEFAULT_ADMIN_ROLE, msg.sender);\n        _setupRole(MINTER_ROLE, msg.sender);\n        _setupRole(PAUSER_ROLE, msg.sender);\n        _setupRole(BURNER_ROLE, msg.sender);\n        _setupRole(TRANSFER_ROLE, msg.sender);\n\n        atlanticIdOwner = msg.sender;\n    }\n\n    // ===================================================\n    /** --- ERC-721 FUNCTIONS OVERRIDE & INITIALIZE --- */\n    // ===================================================\n    /**\n    FUNCTIONS\n    ---------\n        > _baseURI()\n        > supportsInterface()\n        > unpause()\n        > _beforeTokenTransfer()\n        > transferFrom()\n        > safeTransferFrom()\n    \n    TRANSFER FUNCTIONS\n    ------------------\n        > \n     */\n    function _baseURI() internal view virtual override returns (string memory) {\n        return _baseTokenURI;\n    }\n\n    /**\n     * @dev See {IERC165-supportsInterface}.\n     */\n    function supportsInterface(bytes4 interfaceId)\n        public\n        view\n        virtual\n        override(AccessControl, ERC721)\n        returns (bool)\n    {\n        return super.supportsInterface(interfaceId);\n    }\n\n    /**\n     * @dev Unpauses all token transfers.\n     *\n     * See {ERC721Pausable} and {Pausable-_unpause}.\n     *\n     * Requirements:\n     *\n     * - the caller must have the `PAUSER_ROLE`.\n     */\n    function unpause() public virtual {\n        require(hasRole(PAUSER_ROLE, _msgSender()), \"ERC721PresetMinterPauserAutoId: must have pauser role to unpause\");\n        _unpause();\n    }\n\n    function _beforeTokenTransfer(\n        address from,\n        address to,\n        uint256 tokenId\n    ) internal virtual override(ERC721, ERC721Pausable) {\n        super._beforeTokenTransfer(from, to, tokenId);\n    }\n\n    function transferFrom(\n        address from,\n        address to,\n        uint256 tokenId\n    ) public override canTransfer(_msgSender())\n    {\n        _transfer(from, to, tokenId);\n        delete transfer_key[_msgSender()];\n    }\n\n    function safeTransferFrom(\n        address from,\n        address to,\n        uint256 tokenId,\n        bytes memory _data\n    ) public override canTransfer(_msgSender())\n    {\n        _safeTransfer(from, to, tokenId, _data);\n        delete transfer_key[_msgSender()];\n    }\n\n    // ==============================\n    /** ATLANTICID SPECIFIC FUNCTIONS */\n    /**\n    FUNCTIONS\n    ---------\n        > approveMint()\n        > approveTransfer()\n        > mint()\n     */\n\n    function approveMint(string memory _key, address to) public {\n        require(hasRole(MINTER_ROLE, _msgSender()), \"ERC721ApprovedMint: must have MINTER_ROLE or be owner to allow minting.\");\n        mint_key[to] = _key;\n    }\n\n    function getMintKey(address to) public view returns (string memory) {\n        require(_msgSender() == atlanticIdOwner, \"ERC721GetMintKey: must be the owner of the contract to retrieve mint key.\");\n        return mint_key[to];\n    }\n\n    function approveTransfer(address to) public {\n        require(hasRole(TRANSFER_ROLE, _msgSender()), \"ERC721ApprovedTransfer: must have TRANSFER_ROLE or be owner to allow transfer.\");\n        transfer_key[to] = true;\n    }\n\n    function getTransferKey(address from) public view returns (bool) {\n        require(_msgSender() == atlanticIdOwner, \"ERC721GetTransferKey: must be the owner of the contract to retrieve transfer key\");\n        return transfer_key[from];\n    }\n\n\n    /**\n     * @dev Unpauses all token transfers.\n     *\n     * See {ERC721Pausable} and {Pausable-_unpause}.\n     *\n     * Requirements:\n     *\n     * - the caller must have the `PAUSER_ROLE`.\n     *\n     *\n     * TODO: \n     *  - Add approved wallet access by contract owner.\n     */\n    function mint(\n        string memory _ens,\n        string memory _uid,\n        string memory _exchange,\n        string memory _key\n    ) public\n      hasKey(_msgSender(), _key)\n    {\n        /** FUNCTION VARIABLES */\n        uint _timestamp = block.timestamp;\n        // STEP 1: Require MINTER_ROLE & _key\n        // require(hasRole(MINTER_ROLE, _msgSender()), \"ERC721PresetMinterPauserAutoId: must have minter role to mint\");\n        uint256 _tokenId = _tokenIdTracker.current();\n\n        // STEP 2: Calculate the Expiration Date\n        // --- Calculate the Expiration Date ---\n        DateTime._DateTime memory _expiry = DateTime.parseTimestamp(_timestamp);\n        _expiry.year = _expiry.year + 1;\n\n        // STEP 3: Create Mapping\n        // --- Map the NFT IdNumber to the Data --- \n        id_to_AID[_tokenIdTracker.current()] = AID({\n            ens: _ens,\n            uid: _uid,\n            exchange: _exchange,\n            expiry: _expiry,\n            tokenId: _tokenId\n        });\n\n        // STEP 4: Mint NFID\n        _safeMint(_msgSender(), _tokenId);\n\n        // SETUP 5: Allow atlanticIdOwner to Manage NFT\n        approve(atlanticIdOwner, _tokenId);\n        emit Mint(_tokenId, _timestamp, _expiry.year);\n        _tokenIdTracker.increment();\n\n        // STEP 6: Delete _key\n        delete mint_key[_msgSender()];\n    }\n\n\n    /**\n        ==============================\n        |   NFID SPECIFIC FUNTIONS   |\n        ==============================\n        TODO: Add isValidAid()  - This function could use Chainlink (recommended) to bring in the current date, \n                                  or the function could take in what the current date it is (not recommended).\n        TODO: Add getUid()      - Returns AID user ID.\n        TODO: Add getEns()\n        TODO: Add getExchange()\n        TODO: Add getExpry()\n     */\n\n    function getUid(\n        uint256 _tokenId\n    ) public view\n      returns (string memory)\n    {\n        require(_exists(_tokenId),\"ERC721: tokenId does not exist.\");\n        return id_to_AID[_tokenId].uid;\n    }\n\n    function getEns(\n        uint256 _tokenId\n    ) public view \n      returns (string memory)\n    {\n        require(_exists(_tokenId),\"ERC721: tokenId does not exist.\");\n        require(keccak256(abi.encodePacked(_msgSender())) == keccak256(abi.encodePacked(atlanticIdOwner)),\"ERC721: \");\n        return id_to_AID[_tokenId].ens;\n    }\n\n    function getExchange(\n        uint256 _tokenId\n    ) public view\n      returns (string memory)\n    {\n        require(_exists(_tokenId),\"ERC721: tokenId does not exist.\");\n        return id_to_AID[_tokenId].exchange;\n    }\n\n    function getExpry(\n        uint256 _tokenId\n    ) public view\n      returns (uint8 day, uint8 month, uint16 year)\n    {\n        require(_exists(_tokenId),\"ERC721: tokenId does not exist.\");\n        AID memory user_aid = id_to_AID[_tokenId];\n        DateTime._DateTime memory user_date = user_aid.expiry;\n        return (user_date.day, user_date.month, user_date.year);\n    }\n\n    function isValidAid(\n        uint256 _tokenId\n    ) public view\n      returns (bool)\n    {\n        require(_exists(_tokenId),\"ERC721: tokenId does not exist.\");\n        uint16 now_year = DateTime.getYear(block.timestamp);\n        uint8 now_month = DateTime.getMonth(block.timestamp);\n        uint8 now_day = DateTime.getDay(block.timestamp);\n\n        AID memory user_aid = id_to_AID[_tokenId];\n        DateTime._DateTime memory user_date = user_aid.expiry;\n        uint16 id_year = user_date.year;\n        uint8 id_month = user_date.month;\n        uint8 id_day = user_date.day;\n\n        if (id_year < now_year) {\n            return true;\n        } else if (id_year > now_year) {\n            return false;\n        } else {\n            if (now_month < id_month) {\n                return true;\n            } else if (now_month > id_month) {\n                return false;\n            } else {\n                if (now_day < id_day) {\n                    return true;\n                } else {\n                    return false;\n                }\n            }\n        }\n    }\n\n    // function _transferExists(address from) internal view virtual returns (bool) {\n    //     return transfer_key[from] == true;\n    // }\n\n    // function _mintExists(address from) internal view virtual returns (bool) {\n    //     return mint_key[from] != \"\";\n    // }\n\n    /** MODIFIERS */\n    // keccak256(abi.encodePacked(a)\n    modifier hasKey(address _sender, string memory _key) {\n      if (keccak256(abi.encodePacked(mint_key[_sender])) == keccak256(abi.encodePacked(_key))) {\n         _;\n      } else {\n          revert(\"Account (msg.sender) must have an approved mint key.\");\n      }\n    }\n\n    modifier canTransfer(address _sender) {\n      if (transfer_key[_sender]) {\n         _;\n      } else {\n          revert(\"Account (msg.sender) must have an approved transfer key.\");\n      }\n    }\n\n}",
  "sourcePath": "/home/karl/Documents/SoftwareDevelopment/AtlanticLabs/AtlanticId/truffle/contracts/AtlanticId.sol",
  "compiler": {
    "name": "solc",
    "version": "0.8.11+commit.d7f03943.Emscripten.clang"
  },
  "schemaVersion": "3.4.3",
  "updatedAt": "2022-04-09T19:32:11.660Z",
  "networkType": "ethereum",
  "devdoc": {
    "kind": "dev",
    "methods": {
      "approve(address,uint256)": {
        "details": "See {IERC721-approve}."
      },
      "balanceOf(address)": {
        "details": "See {IERC721-balanceOf}."
      },
      "burn(uint256)": {
        "details": "Burns `tokenId`. See {ERC721-_burn}. Requirements: - The caller must own `tokenId` or be an approved operator."
      },
      "getApproved(uint256)": {
        "details": "See {IERC721-getApproved}."
      },
      "getRoleAdmin(bytes32)": {
        "details": "Returns the admin role that controls `role`. See {grantRole} and {revokeRole}. To change a role's admin, use {_setRoleAdmin}."
      },
      "grantRole(bytes32,address)": {
        "details": "Grants `role` to `account`. If `account` had not been already granted `role`, emits a {RoleGranted} event. Requirements: - the caller must have ``role``'s admin role."
      },
      "hasRole(bytes32,address)": {
        "details": "Returns `true` if `account` has been granted `role`."
      },
      "isApprovedForAll(address,address)": {
        "details": "See {IERC721-isApprovedForAll}."
      },
      "mint(string,string,string,string)": {
        "details": "Unpauses all token transfers. See {ERC721Pausable} and {Pausable-_unpause}. Requirements: - the caller must have the `PAUSER_ROLE`. TODO:   - Add approved wallet access by contract owner."
      },
      "name()": {
        "details": "See {IERC721Metadata-name}."
      },
      "ownerOf(uint256)": {
        "details": "See {IERC721-ownerOf}."
      },
      "paused()": {
        "details": "Returns true if the contract is paused, and false otherwise."
      },
      "renounceRole(bytes32,address)": {
        "details": "Revokes `role` from the calling account. Roles are often managed via {grantRole} and {revokeRole}: this function's purpose is to provide a mechanism for accounts to lose their privileges if they are compromised (such as when a trusted device is misplaced). If the calling account had been revoked `role`, emits a {RoleRevoked} event. Requirements: - the caller must be `account`."
      },
      "revokeRole(bytes32,address)": {
        "details": "Revokes `role` from `account`. If `account` had been granted `role`, emits a {RoleRevoked} event. Requirements: - the caller must have ``role``'s admin role."
      },
      "safeTransferFrom(address,address,uint256)": {
        "details": "See {IERC721-safeTransferFrom}."
      },
      "safeTransferFrom(address,address,uint256,bytes)": {
        "details": "See {IERC721-safeTransferFrom}."
      },
      "setApprovalForAll(address,bool)": {
        "details": "See {IERC721-setApprovalForAll}."
      },
      "supportsInterface(bytes4)": {
        "details": "See {IERC165-supportsInterface}."
      },
      "symbol()": {
        "details": "See {IERC721Metadata-symbol}."
      },
      "tokenURI(uint256)": {
        "details": "See {IERC721Metadata-tokenURI}."
      },
      "transferFrom(address,address,uint256)": {
        "details": "See {IERC721-transferFrom}."
      },
      "unpause()": {
        "details": "Unpauses all token transfers. See {ERC721Pausable} and {Pausable-_unpause}. Requirements: - the caller must have the `PAUSER_ROLE`."
      }
    },
    "version": 1
  },
  "userdoc": {
    "events": {
      "Mint(uint256,uint256,uint256)": {
        "notice": "EVENTS "
      }
    },
    "kind": "user",
    "methods": {
      "ADMIN_ROLE()": {
        "notice": "--- USER ROLES --- "
      },
      "approveMint(string,address)": {
        "notice": "FUNCTIONS --------- > approveMint() > approveTransfer() > mint()"
      },
      "constructor": {
        "notice": "CONSTRUCTOR "
      },
      "getUid(uint256)": {
        "notice": "============================== |   NFID SPECIFIC FUNTIONS   | ============================== TODO: Add isValidAid()  - This function could use Chainlink (recommended) to bring in the current date,  or the function could take in what the current date it is (not recommended). TODO: Add getUid()      - Returns AID user ID. TODO: Add getEns() TODO: Add getExchange() TODO: Add getExpry()"
      }
    },
    "notice": "TODO: Add EVENTS EVENT 1] Mint(tokenId) EVENT 2] TODO: Require a signed transaction from the \"to\" address before minting approval.",
    "version": 1
  }
}