{
  "contractName": "DateTime",
  "abi": [
    {
      "inputs": [
        {
          "internalType": "uint16",
          "name": "year",
          "type": "uint16"
        }
      ],
      "name": "isLeapYear",
      "outputs": [
        {
          "internalType": "bool",
          "name": "",
          "type": "bool"
        }
      ],
      "stateMutability": "pure",
      "type": "function",
      "constant": true
    },
    {
      "inputs": [
        {
          "internalType": "uint256",
          "name": "year",
          "type": "uint256"
        }
      ],
      "name": "leapYearsBefore",
      "outputs": [
        {
          "internalType": "uint256",
          "name": "",
          "type": "uint256"
        }
      ],
      "stateMutability": "pure",
      "type": "function",
      "constant": true
    },
    {
      "inputs": [
        {
          "internalType": "uint8",
          "name": "month",
          "type": "uint8"
        },
        {
          "internalType": "uint16",
          "name": "year",
          "type": "uint16"
        }
      ],
      "name": "getDaysInMonth",
      "outputs": [
        {
          "internalType": "uint8",
          "name": "",
          "type": "uint8"
        }
      ],
      "stateMutability": "pure",
      "type": "function",
      "constant": true
    },
    {
      "inputs": [
        {
          "internalType": "uint256",
          "name": "timestamp",
          "type": "uint256"
        }
      ],
      "name": "getYear",
      "outputs": [
        {
          "internalType": "uint16",
          "name": "",
          "type": "uint16"
        }
      ],
      "stateMutability": "pure",
      "type": "function",
      "constant": true
    },
    {
      "inputs": [
        {
          "internalType": "uint256",
          "name": "timestamp",
          "type": "uint256"
        }
      ],
      "name": "getMonth",
      "outputs": [
        {
          "internalType": "uint8",
          "name": "",
          "type": "uint8"
        }
      ],
      "stateMutability": "pure",
      "type": "function",
      "constant": true
    },
    {
      "inputs": [
        {
          "internalType": "uint256",
          "name": "timestamp",
          "type": "uint256"
        }
      ],
      "name": "getDay",
      "outputs": [
        {
          "internalType": "uint8",
          "name": "",
          "type": "uint8"
        }
      ],
      "stateMutability": "pure",
      "type": "function",
      "constant": true
    },
    {
      "inputs": [
        {
          "internalType": "uint256",
          "name": "timestamp",
          "type": "uint256"
        }
      ],
      "name": "getHour",
      "outputs": [
        {
          "internalType": "uint8",
          "name": "",
          "type": "uint8"
        }
      ],
      "stateMutability": "pure",
      "type": "function",
      "constant": true
    },
    {
      "inputs": [
        {
          "internalType": "uint256",
          "name": "timestamp",
          "type": "uint256"
        }
      ],
      "name": "getMinute",
      "outputs": [
        {
          "internalType": "uint8",
          "name": "",
          "type": "uint8"
        }
      ],
      "stateMutability": "pure",
      "type": "function",
      "constant": true
    },
    {
      "inputs": [
        {
          "internalType": "uint256",
          "name": "timestamp",
          "type": "uint256"
        }
      ],
      "name": "getSecond",
      "outputs": [
        {
          "internalType": "uint8",
          "name": "",
          "type": "uint8"
        }
      ],
      "stateMutability": "pure",
      "type": "function",
      "constant": true
    },
    {
      "inputs": [
        {
          "internalType": "uint256",
          "name": "timestamp",
          "type": "uint256"
        }
      ],
      "name": "getWeekday",
      "outputs": [
        {
          "internalType": "uint8",
          "name": "",
          "type": "uint8"
        }
      ],
      "stateMutability": "pure",
      "type": "function",
      "constant": true
    },
    {
      "inputs": [
        {
          "internalType": "uint16",
          "name": "year",
          "type": "uint16"
        },
        {
          "internalType": "uint8",
          "name": "month",
          "type": "uint8"
        },
        {
          "internalType": "uint8",
          "name": "day",
          "type": "uint8"
        },
        {
          "internalType": "uint8",
          "name": "hour",
          "type": "uint8"
        },
        {
          "internalType": "uint8",
          "name": "minute",
          "type": "uint8"
        }
      ],
      "name": "toTimestamp",
      "outputs": [
        {
          "internalType": "uint256",
          "name": "timestamp",
          "type": "uint256"
        }
      ],
      "stateMutability": "pure",
      "type": "function",
      "constant": true
    },
    {
      "inputs": [
        {
          "internalType": "uint16",
          "name": "year",
          "type": "uint16"
        },
        {
          "internalType": "uint8",
          "name": "month",
          "type": "uint8"
        },
        {
          "internalType": "uint8",
          "name": "day",
          "type": "uint8"
        },
        {
          "internalType": "uint8",
          "name": "hour",
          "type": "uint8"
        }
      ],
      "name": "toTimestamp",
      "outputs": [
        {
          "internalType": "uint256",
          "name": "timestamp",
          "type": "uint256"
        }
      ],
      "stateMutability": "pure",
      "type": "function",
      "constant": true
    },
    {
      "inputs": [
        {
          "internalType": "uint16",
          "name": "year",
          "type": "uint16"
        },
        {
          "internalType": "uint8",
          "name": "month",
          "type": "uint8"
        },
        {
          "internalType": "uint8",
          "name": "day",
          "type": "uint8"
        }
      ],
      "name": "toTimestamp",
      "outputs": [
        {
          "internalType": "uint256",
          "name": "timestamp",
          "type": "uint256"
        }
      ],
      "stateMutability": "pure",
      "type": "function",
      "constant": true
    },
    {
      "inputs": [
        {
          "internalType": "uint16",
          "name": "year",
          "type": "uint16"
        },
        {
          "internalType": "uint8",
          "name": "month",
          "type": "uint8"
        },
        {
          "internalType": "uint8",
          "name": "day",
          "type": "uint8"
        },
        {
          "internalType": "uint8",
          "name": "hour",
          "type": "uint8"
        },
        {
          "internalType": "uint8",
          "name": "minute",
          "type": "uint8"
        },
        {
          "internalType": "uint8",
          "name": "second",
          "type": "uint8"
        }
      ],
      "name": "toTimestamp",
      "outputs": [
        {
          "internalType": "uint256",
          "name": "timestamp",
          "type": "uint256"
        }
      ],
      "stateMutability": "pure",
      "type": "function",
      "constant": true
    }
  ],
  "bytecode": "0x610d3d610053600b82828239805160001a607314610046577f4e487b7100000000000000000000000000000000000000000000000000000000600052600060045260246000fd5b30600052607381538281f3fe7300000000000000000000000000000000000000003014608060405260043610610111576000357c0100000000000000000000000000000000000000000000000000000000900480639054bdec116100b3578063a6f0e5771161008d578063a6f0e5771461020c578063b19999371461022f578063b238ad0e14610242578063fa93f8831461025557600080fd5b80639054bdec146101c057806392d66313146101d3578063a324ad24146101f957600080fd5b806365c72840116100ef57806365c72840146101745780637f791833146101875780638aa001fc1461019a5780638c8d98a0146101ad57600080fd5b80633e239e1a146101165780634ac1ad781461014057806362ba968714610153575b600080fd5b610129610124366004610955565b610268565b60405160ff90911681526020015b60405180910390f35b61012961014e366004610955565b610292565b610166610161366004610996565b6102ae565b604051908152602001610137565b610129610182366004610955565b6102c9565b6101666101953660046109fb565b6102de565b6101296101a8366004610955565b6102f8565b6101666101bb366004610a4f565b610305565b6101666101ce366004610a92565b61031f565b6101e66101e1366004610955565b6104d0565b60405161ffff9091168152602001610137565b610129610207366004610955565b6105c0565b61021f61021a366004610b06565b6105d5565b6040519015158152602001610137565b61016661023d366004610955565b610634565b610129610250366004610b28565b610679565b610129610263366004610955565b610740565b60006018603c6102788185610bb9565b6102829190610bb9565b61028c9190610bcd565b92915050565b600060076102a36201518084610bb9565b610282906004610be1565b60006102bf8686868686600061031f565b9695505050505050565b60006102d48261074e565b6040015192915050565b60006102ef8585858560008061031f565b95945050505050565b600061028c603c83610bcd565b6000610317848484600080600061031f565b949350505050565b60006107b25b8761ffff168161ffff16101561037b5761033e816105d5565b15610358576103516301e2850083610be1565b9150610369565b6103666301e1338083610be1565b91505b8061037381610bf9565b915050610325565b610383610936565b601f8152610390896105d5565b156103a157601d60208201526103a9565b601c60208201525b601f60408201819052601e606083018190526080830182905260a0830181905260c0830182905260e0830182905261010083018190526101208301829052610140830152610160820152600191505b8760ff168261ffff16101561045a5780610413600184610c4a565b61ffff16600c811061042757610427610c1b565b602002015161043c9060ff1662015180610c6d565b6104469084610be1565b92508161045281610bf9565b9250506103f8565b610465600188610c8c565b6104759060ff1662015180610c6d565b61047f9084610be1565b925061049060ff8716610e10610c6d565b61049a9084610be1565b92506104aa60ff8616603c610c6d565b6104b49084610be1565b92506104c360ff851684610be1565b9998505050505050505050565b60008080806104e36301e1338086610bb9565b6104ef906107b2610be1565b91506104fc6107b2610634565b6105098361ffff16610634565b6105139190610caf565b9050610523816301e28500610c6d565b61052d9084610be1565b92508061053c6107b284610c4a565b61ffff1661054a9190610caf565b610558906301e13380610c6d565b6105629084610be1565b92505b848311156105b85761057b61021a600184610c4a565b156105955761058e6301e2850084610caf565b92506105a6565b6105a36301e1338084610caf565b92505b6105b1600183610c4a565b9150610565565b509392505050565b60006105cb8261074e565b6020015192915050565b60006105e2600483610cc6565b61ffff16156105f357506000919050565b6105fe606483610cc6565b61ffff161561060f57506001919050565b61061b61019083610cc6565b61ffff161561062c57506000919050565b506001919050565b6000610641600183610caf565b915061064f61019083610bb9565b61065a606484610bb9565b610665600485610bb9565b61066f9190610caf565b61028c9190610be1565b60008260ff166001148061069057508260ff166003145b8061069e57508260ff166005145b806106ac57508260ff166007145b806106ba57508260ff166008145b806106c857508260ff16600a145b806106d657508260ff16600c145b156106e35750601f61028c565b8260ff16600414806106f857508260ff166006145b8061070657508260ff166009145b8061071457508260ff16600b145b156107215750601e61028c565b61072a826105d5565b156107375750601d61028c565b50601c92915050565b6000603c6102828184610bb9565b6040805160e081018252600080825260208201819052918101829052606081018290526080810182905260a0810182905260c08101829052908080610792856104d0565b61ffff1684526107a36107b2610634565b84516107b29061ffff16610634565b6107bc9190610caf565b91506107cc826301e28500610c6d565b6107d69084610be1565b9250816107b285600001516107eb9190610c4a565b61ffff166107f99190610caf565b610807906301e13380610c6d565b6108119084610be1565b92506000600191505b600c8260ff161161088257610833828660000151610679565b6108439060ff1662015180610c6d565b9050856108508583610be1565b11156108645760ff82166020860152610882565b61086e8185610be1565b93508161087a81610ce7565b92505061081a565b600191505b61089985602001518660000151610679565b60ff168260ff16116108e857856108b38562015180610be1565b11156108c75760ff821660408601526108e8565b6108d46201518085610be1565b9350816108e081610ce7565b925050610887565b6108f186610268565b60ff16606086015261090286610740565b60ff166080860152610913866102f8565b60ff1660a086015261092486610292565b60ff1660c08601525092949350505050565b604051806101800160405280600c906020820280368337509192915050565b60006020828403121561096757600080fd5b5035919050565b803561ffff8116811461098057600080fd5b919050565b803560ff8116811461098057600080fd5b600080600080600060a086880312156109ae57600080fd5b6109b78661096e565b94506109c560208701610985565b93506109d360408701610985565b92506109e160608701610985565b91506109ef60808701610985565b90509295509295909350565b60008060008060808587031215610a1157600080fd5b610a1a8561096e565b9350610a2860208601610985565b9250610a3660408601610985565b9150610a4460608601610985565b905092959194509250565b600080600060608486031215610a6457600080fd5b610a6d8461096e565b9250610a7b60208501610985565b9150610a8960408501610985565b90509250925092565b60008060008060008060c08789031215610aab57600080fd5b610ab48761096e565b9550610ac260208801610985565b9450610ad060408801610985565b9350610ade60608801610985565b9250610aec60808801610985565b9150610afa60a08801610985565b90509295509295509295565b600060208284031215610b1857600080fd5b610b218261096e565b9392505050565b60008060408385031215610b3b57600080fd5b610b4483610985565b9150610b526020840161096e565b90509250929050565b7f4e487b7100000000000000000000000000000000000000000000000000000000600052601260045260246000fd5b7f4e487b7100000000000000000000000000000000000000000000000000000000600052601160045260246000fd5b600082610bc857610bc8610b5b565b500490565b600082610bdc57610bdc610b5b565b500690565b60008219821115610bf457610bf4610b8a565b500190565b600061ffff80831681811415610c1157610c11610b8a565b6001019392505050565b7f4e487b7100000000000000000000000000000000000000000000000000000000600052603260045260246000fd5b600061ffff83811690831681811015610c6557610c65610b8a565b039392505050565b6000816000190483118215151615610c8757610c87610b8a565b500290565b600060ff821660ff841680821015610ca657610ca6610b8a565b90039392505050565b600082821015610cc157610cc1610b8a565b500390565b600061ffff80841680610cdb57610cdb610b5b565b92169190910692915050565b600060ff821660ff811415610cfe57610cfe610b8a565b6001019291505056fea264697066735822122065788c26c60cbe274fcf69dd29ab8aea3058fe6fb99812f5746a63a4d77642da64736f6c634300080b0033",
  "immutableReferences": {},
  "source": "// SPDX-License-Identifier: MIT\npragma solidity ^0.8.0;\n\nlibrary DateTime {\n        /*\n         *  Date and Time utilities for ethereum contracts\n         *\n         */\n        struct _DateTime {\n                uint16 year;\n                uint8 month;\n                uint8 day;\n                uint8 hour;\n                uint8 minute;\n                uint8 second;\n                uint8 weekday;\n        }\n\n        uint constant DAY_IN_SECONDS = 86400;\n        uint constant YEAR_IN_SECONDS = 31536000;\n        uint constant LEAP_YEAR_IN_SECONDS = 31622400;\n\n        uint constant HOUR_IN_SECONDS = 3600;\n        uint constant MINUTE_IN_SECONDS = 60;\n\n        uint16 constant ORIGIN_YEAR = 1970;\n\n        function isLeapYear(uint16 year) public pure returns (bool) {\n                if (year % 4 != 0) {\n                        return false;\n                }\n                if (year % 100 != 0) {\n                        return true;\n                }\n                if (year % 400 != 0) {\n                        return false;\n                }\n                return true;\n        }\n\n        function leapYearsBefore(uint year) public pure returns (uint) {\n                year -= 1;\n                return year / 4 - year / 100 + year / 400;\n        }\n\n        function getDaysInMonth(uint8 month, uint16 year) public pure returns (uint8) {\n                if (month == 1 || month == 3 || month == 5 || month == 7 || month == 8 || month == 10 || month == 12) {\n                        return 31;\n                }\n                else if (month == 4 || month == 6 || month == 9 || month == 11) {\n                        return 30;\n                }\n                else if (isLeapYear(year)) {\n                        return 29;\n                }\n                else {\n                        return 28;\n                }\n        }\n\n        function parseTimestamp(uint timestamp) internal pure returns (_DateTime memory dt) {\n                uint secondsAccountedFor = 0;\n                uint buf;\n                uint8 i;\n\n                // Year\n                dt.year = getYear(timestamp);\n                buf = leapYearsBefore(dt.year) - leapYearsBefore(ORIGIN_YEAR);\n\n                secondsAccountedFor += LEAP_YEAR_IN_SECONDS * buf;\n                secondsAccountedFor += YEAR_IN_SECONDS * (dt.year - ORIGIN_YEAR - buf);\n\n                // Month\n                uint secondsInMonth;\n                for (i = 1; i <= 12; i++) {\n                        secondsInMonth = DAY_IN_SECONDS * getDaysInMonth(i, dt.year);\n                        if (secondsInMonth + secondsAccountedFor > timestamp) {\n                                dt.month = i;\n                                break;\n                        }\n                        secondsAccountedFor += secondsInMonth;\n                }\n\n                // Day\n                for (i = 1; i <= getDaysInMonth(dt.month, dt.year); i++) {\n                        if (DAY_IN_SECONDS + secondsAccountedFor > timestamp) {\n                                dt.day = i;\n                                break;\n                        }\n                        secondsAccountedFor += DAY_IN_SECONDS;\n                }\n\n                // Hour\n                dt.hour = getHour(timestamp);\n\n                // Minute\n                dt.minute = getMinute(timestamp);\n\n                // Second\n                dt.second = getSecond(timestamp);\n\n                // Day of week.\n                dt.weekday = getWeekday(timestamp);\n        }\n\n        function getYear(uint timestamp) public pure returns (uint16) {\n                uint secondsAccountedFor = 0;\n                uint16 year;\n                uint numLeapYears;\n\n                // Year\n                year = uint16(ORIGIN_YEAR + timestamp / YEAR_IN_SECONDS);\n                numLeapYears = leapYearsBefore(year) - leapYearsBefore(ORIGIN_YEAR);\n\n                secondsAccountedFor += LEAP_YEAR_IN_SECONDS * numLeapYears;\n                secondsAccountedFor += YEAR_IN_SECONDS * (year - ORIGIN_YEAR - numLeapYears);\n\n                while (secondsAccountedFor > timestamp) {\n                        if (isLeapYear(uint16(year - 1))) {\n                                secondsAccountedFor -= LEAP_YEAR_IN_SECONDS;\n                        }\n                        else {\n                                secondsAccountedFor -= YEAR_IN_SECONDS;\n                        }\n                        year -= 1;\n                }\n                return year;\n        }\n\n        function getMonth(uint timestamp) public pure returns (uint8) {\n                return parseTimestamp(timestamp).month;\n        }\n\n        function getDay(uint timestamp) public pure returns (uint8) {\n                return parseTimestamp(timestamp).day;\n        }\n\n        function getHour(uint timestamp) public pure returns (uint8) {\n                return uint8((timestamp / 60 / 60) % 24);\n        }\n\n        function getMinute(uint timestamp) public pure returns (uint8) {\n                return uint8((timestamp / 60) % 60);\n        }\n\n        function getSecond(uint timestamp) public pure returns (uint8) {\n                return uint8(timestamp % 60);\n        }\n\n        function getWeekday(uint timestamp) public pure returns (uint8) {\n                return uint8((timestamp / DAY_IN_SECONDS + 4) % 7);\n        }\n\n        function toTimestamp(uint16 year, uint8 month, uint8 day) public pure returns (uint timestamp) {\n                return toTimestamp(year, month, day, 0, 0, 0);\n        }\n\n        function toTimestamp(uint16 year, uint8 month, uint8 day, uint8 hour) public pure returns (uint timestamp) {\n                return toTimestamp(year, month, day, hour, 0, 0);\n        }\n\n        function toTimestamp(uint16 year, uint8 month, uint8 day, uint8 hour, uint8 minute) public pure returns (uint timestamp) {\n                return toTimestamp(year, month, day, hour, minute, 0);\n        }\n\n        function toTimestamp(uint16 year, uint8 month, uint8 day, uint8 hour, uint8 minute, uint8 second) public pure returns (uint timestamp) {\n                uint16 i;\n\n                // Year\n                for (i = ORIGIN_YEAR; i < year; i++) {\n                        if (isLeapYear(i)) {\n                                timestamp += LEAP_YEAR_IN_SECONDS;\n                        }\n                        else {\n                                timestamp += YEAR_IN_SECONDS;\n                        }\n                }\n\n                // Month\n                uint8[12] memory monthDayCounts;\n                monthDayCounts[0] = 31;\n                if (isLeapYear(year)) {\n                        monthDayCounts[1] = 29;\n                }\n                else {\n                        monthDayCounts[1] = 28;\n                }\n                monthDayCounts[2] = 31;\n                monthDayCounts[3] = 30;\n                monthDayCounts[4] = 31;\n                monthDayCounts[5] = 30;\n                monthDayCounts[6] = 31;\n                monthDayCounts[7] = 31;\n                monthDayCounts[8] = 30;\n                monthDayCounts[9] = 31;\n                monthDayCounts[10] = 30;\n                monthDayCounts[11] = 31;\n\n                for (i = 1; i < month; i++) {\n                        timestamp += DAY_IN_SECONDS * monthDayCounts[i - 1];\n                }\n\n                // Day\n                timestamp += DAY_IN_SECONDS * (day - 1);\n\n                // Hour\n                timestamp += HOUR_IN_SECONDS * (hour);\n\n                // Minute\n                timestamp += MINUTE_IN_SECONDS * (minute);\n\n                // Second\n                timestamp += second;\n\n                return timestamp;\n        }\n}",
  "sourcePath": "/home/karl/Documents/SoftwareDevelopment/AtlanticLabs/AtlanticId/truffle/contracts/DateTime.sol",
  "compiler": {
    "name": "solc",
    "version": "0.8.11+commit.d7f03943.Emscripten.clang"
  },
  "schemaVersion": "3.4.3",
  "updatedAt": "2022-04-09T19:32:11.677Z",
  "networkType": "ethereum",
  "devdoc": {
    "kind": "dev",
    "methods": {},
    "version": 1
  },
  "userdoc": {
    "kind": "user",
    "methods": {},
    "version": 1
  }
}