{
  "contractName": "FooContract",
  "abi": [
    {
      "inputs": [],
      "stateMutability": "nonpayable",
      "type": "constructor"
    },
    {
      "anonymous": false,
      "inputs": [
        {
          "indexed": true,
          "internalType": "bytes32",
          "name": "role",
          "type": "bytes32"
        },
        {
          "indexed": true,
          "internalType": "bytes32",
          "name": "previousAdminRole",
          "type": "bytes32"
        },
        {
          "indexed": true,
          "internalType": "bytes32",
          "name": "newAdminRole",
          "type": "bytes32"
        }
      ],
      "name": "RoleAdminChanged",
      "type": "event"
    },
    {
      "anonymous": false,
      "inputs": [
        {
          "indexed": true,
          "internalType": "bytes32",
          "name": "role",
          "type": "bytes32"
        },
        {
          "indexed": true,
          "internalType": "address",
          "name": "account",
          "type": "address"
        },
        {
          "indexed": true,
          "internalType": "address",
          "name": "sender",
          "type": "address"
        }
      ],
      "name": "RoleGranted",
      "type": "event"
    },
    {
      "anonymous": false,
      "inputs": [
        {
          "indexed": true,
          "internalType": "bytes32",
          "name": "role",
          "type": "bytes32"
        },
        {
          "indexed": true,
          "internalType": "address",
          "name": "account",
          "type": "address"
        },
        {
          "indexed": true,
          "internalType": "address",
          "name": "sender",
          "type": "address"
        }
      ],
      "name": "RoleRevoked",
      "type": "event"
    },
    {
      "inputs": [],
      "name": "ADMIN_ROLE",
      "outputs": [
        {
          "internalType": "bytes32",
          "name": "",
          "type": "bytes32"
        }
      ],
      "stateMutability": "view",
      "type": "function",
      "constant": true
    },
    {
      "inputs": [],
      "name": "BURNER_ROLE",
      "outputs": [
        {
          "internalType": "bytes32",
          "name": "",
          "type": "bytes32"
        }
      ],
      "stateMutability": "view",
      "type": "function",
      "constant": true
    },
    {
      "inputs": [],
      "name": "DEFAULT_ADMIN_ROLE",
      "outputs": [
        {
          "internalType": "bytes32",
          "name": "",
          "type": "bytes32"
        }
      ],
      "stateMutability": "view",
      "type": "function",
      "constant": true
    },
    {
      "inputs": [],
      "name": "MINTER_ROLE",
      "outputs": [
        {
          "internalType": "bytes32",
          "name": "",
          "type": "bytes32"
        }
      ],
      "stateMutability": "view",
      "type": "function",
      "constant": true
    },
    {
      "inputs": [],
      "name": "PAUSER_ROLE",
      "outputs": [
        {
          "internalType": "bytes32",
          "name": "",
          "type": "bytes32"
        }
      ],
      "stateMutability": "view",
      "type": "function",
      "constant": true
    },
    {
      "inputs": [],
      "name": "TRANSFER_ROLE",
      "outputs": [
        {
          "internalType": "bytes32",
          "name": "",
          "type": "bytes32"
        }
      ],
      "stateMutability": "view",
      "type": "function",
      "constant": true
    },
    {
      "inputs": [
        {
          "internalType": "bytes32",
          "name": "role",
          "type": "bytes32"
        }
      ],
      "name": "getRoleAdmin",
      "outputs": [
        {
          "internalType": "bytes32",
          "name": "",
          "type": "bytes32"
        }
      ],
      "stateMutability": "view",
      "type": "function",
      "constant": true
    },
    {
      "inputs": [
        {
          "internalType": "bytes32",
          "name": "role",
          "type": "bytes32"
        },
        {
          "internalType": "address",
          "name": "account",
          "type": "address"
        }
      ],
      "name": "grantRole",
      "outputs": [],
      "stateMutability": "nonpayable",
      "type": "function"
    },
    {
      "inputs": [
        {
          "internalType": "bytes32",
          "name": "role",
          "type": "bytes32"
        },
        {
          "internalType": "address",
          "name": "account",
          "type": "address"
        }
      ],
      "name": "hasRole",
      "outputs": [
        {
          "internalType": "bool",
          "name": "",
          "type": "bool"
        }
      ],
      "stateMutability": "view",
      "type": "function",
      "constant": true
    },
    {
      "inputs": [
        {
          "internalType": "bytes32",
          "name": "role",
          "type": "bytes32"
        },
        {
          "internalType": "address",
          "name": "account",
          "type": "address"
        }
      ],
      "name": "renounceRole",
      "outputs": [],
      "stateMutability": "nonpayable",
      "type": "function"
    },
    {
      "inputs": [
        {
          "internalType": "bytes32",
          "name": "role",
          "type": "bytes32"
        },
        {
          "internalType": "address",
          "name": "account",
          "type": "address"
        }
      ],
      "name": "revokeRole",
      "outputs": [],
      "stateMutability": "nonpayable",
      "type": "function"
    },
    {
      "inputs": [
        {
          "internalType": "bytes4",
          "name": "interfaceId",
          "type": "bytes4"
        }
      ],
      "name": "supportsInterface",
      "outputs": [
        {
          "internalType": "bool",
          "name": "",
          "type": "bool"
        }
      ],
      "stateMutability": "view",
      "type": "function",
      "constant": true
    }
  ],
  "bytecode": "0x608060405234801561001057600080fd5b506100447f9f2df0fed2c77648de5860a4cc508cd0818c85b8b8a1ab4ceeef8d981c8956a633640100000000610049810204565b610124565b61005c8282640100000000610060810204565b5050565b61007382826401000000006100f7810204565b61005c57600082815260208181526040808320600160a060020a03851684529091529020805460ff191660011790556100b3640100000000610120810204565b600160a060020a031681600160a060020a0316837f2f8788117e7eff1d82e926ec794901d17c78024a50270940304540a733656f0d60405160405180910390a45050565b600091825260208281526040808420600160a060020a0393909316845291905290205460ff1690565b3390565b610a58806101336000396000f3fe608060405234801561001057600080fd5b50600436106100d1576000357c01000000000000000000000000000000000000000000000000000000009004806375b238fc1161008e57806375b238fc146101a557806391d14854146101cc578063a217fddf146101df578063d5391393146101e7578063d547741f1461020e578063e63ab1e91461022157600080fd5b806301ffc9a7146100d6578063206b60f9146100fe578063248a9ca314610133578063282c51f3146101565780632f2ff15d1461017d57806336568abe14610192575b600080fd5b6100e96100e43660046107cf565b610248565b60405190151581526020015b60405180910390f35b6101257f8502233096d909befbda0999bb8ea2f3a6be3c138b9fbf003752a4c8bce86f6c81565b6040519081526020016100f5565b61012561014136600461080e565b60009081526020819052604090206001015490565b6101257f3c11d16cbaffd01df69ce1c404f6340ee057498f5f00246190ea54220576a84881565b61019061018b366004610827565b6102db565b005b6101906101a0366004610827565b610306565b6101257fa49807205ce4d355092ef5a8a18f56e8913cf4a201fbe287825b095693c2177581565b6100e96101da366004610827565b6103b1565b610125600081565b6101257f9f2df0fed2c77648de5860a4cc508cd0818c85b8b8a1ab4ceeef8d981c8956a681565b61019061021c366004610827565b6103da565b6101257f65d7a28e3265b37a6474929f336521b332c1681b933f6cb9f3376673440d862a81565b60007bffffffffffffffffffffffffffffffffffffffffffffffffffffffff1982167f7965db0b0000000000000000000000000000000000000000000000000000000014806102d557507f01ffc9a7000000000000000000000000000000000000000000000000000000007bffffffffffffffffffffffffffffffffffffffffffffffffffffffff198316145b92915050565b6000828152602081905260409020600101546102f78133610400565b610301838361047e565b505050565b600160a060020a03811633146103a3576040517f08c379a000000000000000000000000000000000000000000000000000000000815260206004820152602f60248201527f416363657373436f6e74726f6c3a2063616e206f6e6c792072656e6f756e636560448201527f20726f6c657320666f722073656c66000000000000000000000000000000000060648201526084015b60405180910390fd5b6103ad8282610502565b5050565b600091825260208281526040808420600160a060020a0393909316845291905290205460ff1690565b6000828152602081905260409020600101546103f68133610400565b6103018383610502565b61040a82826103b1565b6103ad5761042281600160a060020a03166014610567565b61042d836020610567565b60405160200161043e929190610893565b60408051601f19818403018152908290527f08c379a000000000000000000000000000000000000000000000000000000000825261039a91600401610914565b61048882826103b1565b6103ad57600082815260208181526040808320600160a060020a03851684529091529020805460ff191660011790556104be3390565b600160a060020a031681600160a060020a0316837f2f8788117e7eff1d82e926ec794901d17c78024a50270940304540a733656f0d60405160405180910390a45050565b61050c82826103b1565b156103ad57600082815260208181526040808320600160a060020a0385168085529252808320805460ff1916905551339285917ff6391f5c32d9c69d2a47ea670b442974b53935d1edc7fd64eb21e047a839171b9190a45050565b60606000610576836002610976565b610581906002610995565b67ffffffffffffffff811115610599576105996109ad565b6040519080825280601f01601f1916602001820160405280156105c3576020820181803683370190505b5090507f3000000000000000000000000000000000000000000000000000000000000000816000815181106105fa576105fa6109dc565b60200101907effffffffffffffffffffffffffffffffffffffffffffffffffffffffffffff1916908160001a9053507f78000000000000000000000000000000000000000000000000000000000000008160018151811061065d5761065d6109dc565b60200101907effffffffffffffffffffffffffffffffffffffffffffffffffffffffffffff1916908160001a9053506000610699846002610976565b6106a4906001610995565b90505b600181111561075f577f303132333435363738396162636465660000000000000000000000000000000085600f16601081106106e5576106e56109dc565b1a7f01000000000000000000000000000000000000000000000000000000000000000282828151811061071a5761071a6109dc565b60200101907effffffffffffffffffffffffffffffffffffffffffffffffffffffffffffff1916908160001a90535060109094049361075881610a0b565b90506106a7565b5083156107c8576040517f08c379a000000000000000000000000000000000000000000000000000000000815260206004820181905260248201527f537472696e67733a20686578206c656e67746820696e73756666696369656e74604482015260640161039a565b9392505050565b6000602082840312156107e157600080fd5b81357bffffffffffffffffffffffffffffffffffffffffffffffffffffffff19811681146107c857600080fd5b60006020828403121561082057600080fd5b5035919050565b6000806040838503121561083a57600080fd5b823591506020830135600160a060020a038116811461085857600080fd5b809150509250929050565b60005b8381101561087e578181015183820152602001610866565b8381111561088d576000848401525b50505050565b7f416363657373436f6e74726f6c3a206163636f756e74200000000000000000008152600083516108cb816017850160208801610863565b7f206973206d697373696e6720726f6c65200000000000000000000000000000006017918401918201528351610908816028840160208801610863565b01602801949350505050565b6020815260008251806020840152610933816040850160208701610863565b601f01601f19169190910160400192915050565b7f4e487b7100000000000000000000000000000000000000000000000000000000600052601160045260246000fd5b600081600019048311821515161561099057610990610947565b500290565b600082198211156109a8576109a8610947565b500190565b7f4e487b7100000000000000000000000000000000000000000000000000000000600052604160045260246000fd5b7f4e487b7100000000000000000000000000000000000000000000000000000000600052603260045260246000fd5b600081610a1a57610a1a610947565b50600019019056fea2646970667358221220653548f845221951462a79e64b706c392c2d7f12dc292a528ca24fc28dcbcf9064736f6c634300080b0033",
  "immutableReferences": {},
  "source": "// SPDX-License-Identifier: MIT\npragma solidity ^0.8.0;\n\nimport \"../node_modules/@openzeppelin/contracts/access/AccessControl.sol\";\n\n\ncontract FooContract is AccessControl {\n\n    // address atlanticIdOwner;\n\n    /** --- USER ROLES --- */\n    bytes32 public constant ADMIN_ROLE    = keccak256(\"ADMIN_ROLE\");\n    bytes32 public constant MINTER_ROLE   = keccak256(\"MINTER_ROLE\");\n    bytes32 public constant PAUSER_ROLE   = keccak256(\"PAUSER_ROLE\");\n    bytes32 public constant BURNER_ROLE   = keccak256(\"BURNER_ROLE\");\n    bytes32 public constant TRANSFER_ROLE = keccak256(\"TRANSFER_ROLE\");\n\n    constructor() {\n        // _setupRole(DEFAULT_ADMIN_ROLE, msg.sender);\n        _setupRole(MINTER_ROLE, msg.sender);\n        // _setupRole(PAUSER_ROLE, msg.sender);\n        // _setupRole(BURNER_ROLE, msg.sender);\n        // _setupRole(TRANSFER_ROLE, msg.sender);\n\n        // atlanticIdOwner = msg.sender;\n    }\n}",
  "sourcePath": "/home/karl/Documents/SoftwareDevelopment/AtlanticLabs/AtlanticId/truffle/contracts/FooContract.sol",
  "compiler": {
    "name": "solc",
    "version": "0.8.11+commit.d7f03943.Emscripten.clang"
  },
  "schemaVersion": "3.4.3",
  "updatedAt": "2022-04-09T19:44:05.646Z",
  "networkType": "ethereum",
  "devdoc": {
    "kind": "dev",
    "methods": {
      "getRoleAdmin(bytes32)": {
        "details": "Returns the admin role that controls `role`. See {grantRole} and {revokeRole}. To change a role's admin, use {_setRoleAdmin}."
      },
      "grantRole(bytes32,address)": {
        "details": "Grants `role` to `account`. If `account` had not been already granted `role`, emits a {RoleGranted} event. Requirements: - the caller must have ``role``'s admin role."
      },
      "hasRole(bytes32,address)": {
        "details": "Returns `true` if `account` has been granted `role`."
      },
      "renounceRole(bytes32,address)": {
        "details": "Revokes `role` from the calling account. Roles are often managed via {grantRole} and {revokeRole}: this function's purpose is to provide a mechanism for accounts to lose their privileges if they are compromised (such as when a trusted device is misplaced). If the calling account had been revoked `role`, emits a {RoleRevoked} event. Requirements: - the caller must be `account`."
      },
      "revokeRole(bytes32,address)": {
        "details": "Revokes `role` from `account`. If `account` had been granted `role`, emits a {RoleRevoked} event. Requirements: - the caller must have ``role``'s admin role."
      },
      "supportsInterface(bytes4)": {
        "details": "See {IERC165-supportsInterface}."
      }
    },
    "version": 1
  },
  "userdoc": {
    "kind": "user",
    "methods": {
      "ADMIN_ROLE()": {
        "notice": "--- USER ROLES --- "
      }
    },
    "version": 1
  }
}